{
	"contract.sol": {
		"Test": {
			"abi": [
				{
					"inputs": [],
					"stateMutability": "nonpayable",
					"type": "constructor"
				},
				{
					"inputs": [
						{
							"internalType": "address",
							"name": "recipient",
							"type": "address"
						},
						{
							"internalType": "uint256",
							"name": "proportion",
							"type": "uint256"
						}
					],
					"name": "addRecipient",
					"outputs": [],
					"stateMutability": "nonpayable",
					"type": "function"
				},
				{
					"inputs": [
						{
							"internalType": "address",
							"name": "",
							"type": "address"
						}
					],
					"name": "balances",
					"outputs": [
						{
							"internalType": "uint256",
							"name": "",
							"type": "uint256"
						}
					],
					"stateMutability": "view",
					"type": "function"
				},
				{
					"inputs": [],
					"name": "deposit",
					"outputs": [],
					"stateMutability": "payable",
					"type": "function"
				},
				{
					"inputs": [],
					"name": "distribute",
					"outputs": [],
					"stateMutability": "nonpayable",
					"type": "function"
				},
				{
					"inputs": [],
					"name": "getRecipients",
					"outputs": [
						{
							"internalType": "address[]",
							"name": "",
							"type": "address[]"
						},
						{
							"internalType": "uint256[]",
							"name": "",
							"type": "uint256[]"
						}
					],
					"stateMutability": "view",
					"type": "function"
				},
				{
					"inputs": [],
					"name": "owner",
					"outputs": [
						{
							"internalType": "address",
							"name": "",
							"type": "address"
						}
					],
					"stateMutability": "view",
					"type": "function"
				},
				{
					"inputs": [
						{
							"internalType": "uint256",
							"name": "",
							"type": "uint256"
						}
					],
					"name": "recipients",
					"outputs": [
						{
							"internalType": "address",
							"name": "recipient",
							"type": "address"
						},
						{
							"internalType": "uint256",
							"name": "proportion",
							"type": "uint256"
						}
					],
					"stateMutability": "view",
					"type": "function"
				},
				{
					"inputs": [],
					"name": "totalDeposited",
					"outputs": [
						{
							"internalType": "uint256",
							"name": "",
							"type": "uint256"
						}
					],
					"stateMutability": "view",
					"type": "function"
				},
				{
					"inputs": [],
					"name": "totalProportion",
					"outputs": [
						{
							"internalType": "uint256",
							"name": "",
							"type": "uint256"
						}
					],
					"stateMutability": "view",
					"type": "function"
				}
			],
			"devdoc": {
				"kind": "dev",
				"methods": {},
				"version": 1
			},
			"evm": {
				"assembly": "    /* \"contract.sol\":59:3638  contract Test {... */\n  mstore(0x40, 0x80)\n    /* \"contract.sol\":349:352  100 */\n  0x64\n    /* \"contract.sol\":316:352  uint256 public totalProportion = 100 */\n  0x03\n  sstore\n    /* \"contract.sol\":515:566  constructor() {... */\n  callvalue\n  dup1\n  iszero\n  tag_1\n  jumpi\n  0x00\n  dup1\n  revert\ntag_1:\n  pop\n    /* \"contract.sol\":548:558  msg.sender */\n  caller\n    /* \"contract.sol\":540:545  owner */\n  0x00\n  dup1\n    /* \"contract.sol\":540:558  owner = msg.sender */\n  0x0100\n  exp\n  dup2\n  sload\n  dup2\n  0xffffffffffffffffffffffffffffffffffffffff\n  mul\n  not\n  and\n  swap1\n  dup4\n  0xffffffffffffffffffffffffffffffffffffffff\n  and\n  mul\n  or\n  swap1\n  sstore\n  pop\n    /* \"contract.sol\":59:3638  contract Test {... */\n  dataSize(sub_0)\n  dup1\n  dataOffset(sub_0)\n  0x00\n  codecopy\n  0x00\n  return\nstop\n\nsub_0: assembly {\n        /* \"contract.sol\":59:3638  contract Test {... */\n      mstore(0x40, 0x80)\n      jumpi(tag_1, lt(calldatasize, 0x04))\n      shr(0xe0, calldataload(0x00))\n      dup1\n      0xd1bc76a1\n      gt\n      tag_11\n      jumpi\n      dup1\n      0xd1bc76a1\n      eq\n      tag_6\n      jumpi\n      dup1\n      0xd78d610b\n      eq\n      tag_7\n      jumpi\n      dup1\n      0xe4fc6b6d\n      eq\n      tag_8\n      jumpi\n      dup1\n      0xf7982243\n      eq\n      tag_9\n      jumpi\n      dup1\n      0xff50abdc\n      eq\n      tag_10\n      jumpi\n      jump(tag_1)\n    tag_11:\n      dup1\n      0x22e5aa3a\n      eq\n      tag_2\n      jumpi\n      dup1\n      0x27e235e3\n      eq\n      tag_3\n      jumpi\n      dup1\n      0x8da5cb5b\n      eq\n      tag_4\n      jumpi\n      dup1\n      0xd0e30db0\n      eq\n      tag_5\n      jumpi\n    tag_1:\n      0x00\n      dup1\n      revert\n        /* \"contract.sol\":316:352  uint256 public totalProportion = 100 */\n    tag_2:\n      callvalue\n      dup1\n      iszero\n      tag_12\n      jumpi\n      0x00\n      dup1\n      revert\n    tag_12:\n      pop\n      tag_13\n      tag_14\n      jump\t// in\n    tag_13:\n      mload(0x40)\n      tag_15\n      swap2\n      swap1\n      tag_16\n      jump\t// in\n    tag_15:\n      mload(0x40)\n      dup1\n      swap2\n      sub\n      swap1\n      return\n        /* \"contract.sol\":175:218  mapping(address => uint256) public balances */\n    tag_3:\n      callvalue\n      dup1\n      iszero\n      tag_17\n      jumpi\n      0x00\n      dup1\n      revert\n    tag_17:\n      pop\n      tag_18\n      0x04\n      dup1\n      calldatasize\n      sub\n      dup2\n      add\n      swap1\n      tag_19\n      swap2\n      swap1\n      tag_20\n      jump\t// in\n    tag_19:\n      tag_21\n      jump\t// in\n    tag_18:\n      mload(0x40)\n      tag_22\n      swap2\n      swap1\n      tag_16\n      jump\t// in\n    tag_22:\n      mload(0x40)\n      dup1\n      swap2\n      sub\n      swap1\n      return\n        /* \"contract.sol\":148:168  address public owner */\n    tag_4:\n      callvalue\n      dup1\n      iszero\n      tag_23\n      jumpi\n      0x00\n      dup1\n      revert\n    tag_23:\n      pop\n      tag_24\n      tag_25\n      jump\t// in\n    tag_24:\n      mload(0x40)\n      tag_26\n      swap2\n      swap1\n      tag_27\n      jump\t// in\n    tag_26:\n      mload(0x40)\n      dup1\n      swap2\n      sub\n      swap1\n      return\n        /* \"contract.sol\":1575:1722  function deposit() public payable onlyOneEther maxBalance{... */\n    tag_5:\n      tag_28\n      tag_29\n      jump\t// in\n    tag_28:\n      stop\n        /* \"contract.sol\":477:506  Recipient[] public recipients */\n    tag_6:\n      callvalue\n      dup1\n      iszero\n      tag_30\n      jumpi\n      0x00\n      dup1\n      revert\n    tag_30:\n      pop\n      tag_31\n      0x04\n      dup1\n      calldatasize\n      sub\n      dup2\n      add\n      swap1\n      tag_32\n      swap2\n      swap1\n      tag_33\n      jump\t// in\n    tag_32:\n      tag_34\n      jump\t// in\n    tag_31:\n      mload(0x40)\n      tag_35\n      swap3\n      swap2\n      swap1\n      tag_36\n      jump\t// in\n    tag_35:\n      mload(0x40)\n      dup1\n      swap2\n      sub\n      swap1\n      return\n        /* \"contract.sol\":3126:3635  function getRecipients() public view returns (address[] memory, uint256[] memory){... */\n    tag_7:\n      callvalue\n      dup1\n      iszero\n      tag_37\n      jumpi\n      0x00\n      dup1\n      revert\n    tag_37:\n      pop\n      tag_38\n      tag_39\n      jump\t// in\n    tag_38:\n      mload(0x40)\n      tag_40\n      swap3\n      swap2\n      swap1\n      tag_41\n      jump\t// in\n    tag_40:\n      mload(0x40)\n      dup1\n      swap2\n      sub\n      swap1\n      return\n        /* \"contract.sol\":2342:3120  function distribute() public onlyOwner validateTotalProportion {... */\n    tag_8:\n      callvalue\n      dup1\n      iszero\n      tag_42\n      jumpi\n      0x00\n      dup1\n      revert\n    tag_42:\n      pop\n      tag_43\n      tag_44\n      jump\t// in\n    tag_43:\n      stop\n        /* \"contract.sol\":1810:2270  function addRecipient(address recipient, uint256 proportion) public onlyOwner validateProportion(proportion) {... */\n    tag_9:\n      callvalue\n      dup1\n      iszero\n      tag_45\n      jumpi\n      0x00\n      dup1\n      revert\n    tag_45:\n      pop\n      tag_46\n      0x04\n      dup1\n      calldatasize\n      sub\n      dup2\n      add\n      swap1\n      tag_47\n      swap2\n      swap1\n      tag_48\n      jump\t// in\n    tag_47:\n      tag_49\n      jump\t// in\n    tag_46:\n      stop\n        /* \"contract.sol\":225:254  uint256 public totalDeposited */\n    tag_10:\n      callvalue\n      dup1\n      iszero\n      tag_50\n      jumpi\n      0x00\n      dup1\n      revert\n    tag_50:\n      pop\n      tag_51\n      tag_52\n      jump\t// in\n    tag_51:\n      mload(0x40)\n      tag_53\n      swap2\n      swap1\n      tag_16\n      jump\t// in\n    tag_53:\n      mload(0x40)\n      dup1\n      swap2\n      sub\n      swap1\n      return\n        /* \"contract.sol\":316:352  uint256 public totalProportion = 100 */\n    tag_14:\n      sload(0x03)\n      dup2\n      jump\t// out\n        /* \"contract.sol\":175:218  mapping(address => uint256) public balances */\n    tag_21:\n      mstore(0x20, 0x01)\n      dup1\n      0x00\n      mstore\n      keccak256(0x00, 0x40)\n      0x00\n      swap2\n      pop\n      swap1\n      pop\n      sload\n      dup2\n      jump\t// out\n        /* \"contract.sol\":148:168  address public owner */\n    tag_25:\n      0x00\n      dup1\n      sload\n      swap1\n      0x0100\n      exp\n      swap1\n      div\n      0xffffffffffffffffffffffffffffffffffffffff\n      and\n      dup2\n      jump\t// out\n        /* \"contract.sol\":1575:1722  function deposit() public payable onlyOneEther maxBalance{... */\n    tag_29:\n        /* \"contract.sol\":835:842  1 ether */\n      0x0de0b6b3a7640000\n        /* \"contract.sol\":822:831  msg.value */\n      callvalue\n        /* \"contract.sol\":822:842  msg.value >= 1 ether */\n      lt\n      iszero\n        /* \"contract.sol\":814:880  require(msg.value >= 1 ether, \"Minimum deposit amount is 1 Ether\") */\n      tag_55\n      jumpi\n      mload(0x40)\n      0x08c379a000000000000000000000000000000000000000000000000000000000\n      dup2\n      mstore\n      0x04\n      add\n      tag_56\n      swap1\n      tag_57\n      jump\t// in\n    tag_56:\n      mload(0x40)\n      dup1\n      swap2\n      sub\n      swap1\n      revert\n    tag_55:\n        /* \"contract.sol\":1072:1081  100 ether */\n      0x056bc75e2d63100000\n        /* \"contract.sol\":1059:1068  msg.value */\n      callvalue\n        /* \"contract.sol\":1042:1056  totalDeposited */\n      sload(0x02)\n        /* \"contract.sol\":1042:1068  totalDeposited + msg.value */\n      tag_59\n      swap2\n      swap1\n      tag_60\n      jump\t// in\n    tag_59:\n        /* \"contract.sol\":1042:1081  totalDeposited + msg.value <= 100 ether */\n      gt\n      iszero\n        /* \"contract.sol\":1034:1118  require(totalDeposited + msg.value <= 100 ether, \"Maximum contract balance reached\") */\n      tag_61\n      jumpi\n      mload(0x40)\n      0x08c379a000000000000000000000000000000000000000000000000000000000\n      dup2\n      mstore\n      0x04\n      add\n      tag_62\n      swap1\n      tag_63\n      jump\t// in\n    tag_62:\n      mload(0x40)\n      dup1\n      swap2\n      sub\n      swap1\n      revert\n    tag_61:\n        /* \"contract.sol\":1667:1676  msg.value */\n      callvalue\n        /* \"contract.sol\":1643:1651  balances */\n      0x01\n        /* \"contract.sol\":1643:1663  balances[msg.sender] */\n      0x00\n        /* \"contract.sol\":1652:1662  msg.sender */\n      caller\n        /* \"contract.sol\":1643:1663  balances[msg.sender] */\n      0xffffffffffffffffffffffffffffffffffffffff\n      and\n      0xffffffffffffffffffffffffffffffffffffffff\n      and\n      dup2\n      mstore\n      0x20\n      add\n      swap1\n      dup2\n      mstore\n      0x20\n      add\n      0x00\n      keccak256\n      0x00\n        /* \"contract.sol\":1643:1676  balances[msg.sender] += msg.value */\n      dup3\n      dup3\n      sload\n      tag_65\n      swap2\n      swap1\n      tag_60\n      jump\t// in\n    tag_65:\n      swap3\n      pop\n      pop\n      dup2\n      swap1\n      sstore\n      pop\n        /* \"contract.sol\":1705:1714  msg.value */\n      callvalue\n        /* \"contract.sol\":1687:1701  totalDeposited */\n      0x02\n      0x00\n        /* \"contract.sol\":1687:1714  totalDeposited += msg.value */\n      dup3\n      dup3\n      sload\n      tag_66\n      swap2\n      swap1\n      tag_60\n      jump\t// in\n    tag_66:\n      swap3\n      pop\n      pop\n      dup2\n      swap1\n      sstore\n      pop\n        /* \"contract.sol\":1575:1722  function deposit() public payable onlyOneEther maxBalance{... */\n      jump\t// out\n        /* \"contract.sol\":477:506  Recipient[] public recipients */\n    tag_34:\n      0x04\n      dup2\n      dup2\n      sload\n      dup2\n      lt\n      tag_67\n      jumpi\n      0x00\n      dup1\n      revert\n    tag_67:\n      swap1\n      0x00\n      mstore\n      keccak256(0x00, 0x20)\n      swap1\n      0x02\n      mul\n      add\n      0x00\n      swap2\n      pop\n      swap1\n      pop\n      dup1\n      0x00\n      add\n      0x00\n      swap1\n      sload\n      swap1\n      0x0100\n      exp\n      swap1\n      div\n      0xffffffffffffffffffffffffffffffffffffffff\n      and\n      swap1\n      dup1\n      0x01\n      add\n      sload\n      swap1\n      pop\n      dup3\n      jump\t// out\n        /* \"contract.sol\":3126:3635  function getRecipients() public view returns (address[] memory, uint256[] memory){... */\n    tag_39:\n        /* \"contract.sol\":3172:3188  address[] memory */\n      0x60\n        /* \"contract.sol\":3190:3206  uint256[] memory */\n      dup1\n        /* \"contract.sol\":3218:3253  address[] memory recipientAddresses */\n      0x00\n        /* \"contract.sol\":3270:3280  recipients */\n      0x04\n        /* \"contract.sol\":3270:3287  recipients.length */\n      dup1\n      sload\n      swap1\n      pop\n        /* \"contract.sol\":3256:3288  new address[](recipients.length) */\n      0xffffffffffffffff\n      dup2\n      gt\n      iszero\n      tag_70\n      jumpi\n      tag_71\n      tag_72\n      jump\t// in\n    tag_71:\n    tag_70:\n      mload(0x40)\n      swap1\n      dup1\n      dup3\n      mstore\n      dup1\n      0x20\n      mul\n      0x20\n      add\n      dup3\n      add\n      0x40\n      mstore\n      dup1\n      iszero\n      tag_73\n      jumpi\n      dup2\n      0x20\n      add\n      0x20\n      dup3\n      mul\n      dup1\n      calldatasize\n      dup4\n      calldatacopy\n      dup1\n      dup3\n      add\n      swap2\n      pop\n      pop\n      swap1\n      pop\n    tag_73:\n      pop\n        /* \"contract.sol\":3218:3288  address[] memory recipientAddresses = new address[](recipients.length) */\n      swap1\n      pop\n        /* \"contract.sol\":3299:3336  uint256[] memory recipientProportions */\n      0x00\n        /* \"contract.sol\":3353:3363  recipients */\n      0x04\n        /* \"contract.sol\":3353:3370  recipients.length */\n      dup1\n      sload\n      swap1\n      pop\n        /* \"contract.sol\":3339:3371  new uint256[](recipients.length) */\n      0xffffffffffffffff\n      dup2\n      gt\n      iszero\n      tag_74\n      jumpi\n      tag_75\n      tag_72\n      jump\t// in\n    tag_75:\n    tag_74:\n      mload(0x40)\n      swap1\n      dup1\n      dup3\n      mstore\n      dup1\n      0x20\n      mul\n      0x20\n      add\n      dup3\n      add\n      0x40\n      mstore\n      dup1\n      iszero\n      tag_76\n      jumpi\n      dup2\n      0x20\n      add\n      0x20\n      dup3\n      mul\n      dup1\n      calldatasize\n      dup4\n      calldatacopy\n      dup1\n      dup3\n      add\n      swap2\n      pop\n      pop\n      swap1\n      pop\n    tag_76:\n      pop\n        /* \"contract.sol\":3299:3371  uint256[] memory recipientProportions = new uint256[](recipients.length) */\n      swap1\n      pop\n        /* \"contract.sol\":3389:3395  uint i */\n      0x00\n        /* \"contract.sol\":3384:3568  for (uint i = 0; i < recipients.length; i++) {... */\n    tag_77:\n        /* \"contract.sol\":3405:3415  recipients */\n      0x04\n        /* \"contract.sol\":3405:3422  recipients.length */\n      dup1\n      sload\n      swap1\n      pop\n        /* \"contract.sol\":3401:3402  i */\n      dup2\n        /* \"contract.sol\":3401:3422  i < recipients.length */\n      lt\n        /* \"contract.sol\":3384:3568  for (uint i = 0; i < recipients.length; i++) {... */\n      iszero\n      tag_78\n      jumpi\n        /* \"contract.sol\":3468:3478  recipients */\n      0x04\n        /* \"contract.sol\":3479:3480  i */\n      dup2\n        /* \"contract.sol\":3468:3481  recipients[i] */\n      dup2\n      sload\n      dup2\n      lt\n      tag_80\n      jumpi\n      tag_81\n      tag_82\n      jump\t// in\n    tag_81:\n    tag_80:\n      swap1\n      0x00\n      mstore\n      keccak256(0x00, 0x20)\n      swap1\n      0x02\n      mul\n      add\n        /* \"contract.sol\":3468:3491  recipients[i].recipient */\n      0x00\n      add\n      0x00\n      swap1\n      sload\n      swap1\n      0x0100\n      exp\n      swap1\n      div\n      0xffffffffffffffffffffffffffffffffffffffff\n      and\n        /* \"contract.sol\":3444:3462  recipientAddresses */\n      dup4\n        /* \"contract.sol\":3463:3464  i */\n      dup3\n        /* \"contract.sol\":3444:3465  recipientAddresses[i] */\n      dup2\n      mload\n      dup2\n      lt\n      tag_84\n      jumpi\n      tag_85\n      tag_82\n      jump\t// in\n    tag_85:\n    tag_84:\n      0x20\n      mul\n      0x20\n      add\n      add\n        /* \"contract.sol\":3444:3491  recipientAddresses[i] = recipients[i].recipient */\n      swap1\n      0xffffffffffffffffffffffffffffffffffffffff\n      and\n      swap1\n      dup2\n      0xffffffffffffffffffffffffffffffffffffffff\n      and\n      dup2\n      mstore\n      pop\n      pop\n        /* \"contract.sol\":3532:3542  recipients */\n      0x04\n        /* \"contract.sol\":3543:3544  i */\n      dup2\n        /* \"contract.sol\":3532:3545  recipients[i] */\n      dup2\n      sload\n      dup2\n      lt\n      tag_86\n      jumpi\n      tag_87\n      tag_82\n      jump\t// in\n    tag_87:\n    tag_86:\n      swap1\n      0x00\n      mstore\n      keccak256(0x00, 0x20)\n      swap1\n      0x02\n      mul\n      add\n        /* \"contract.sol\":3532:3556  recipients[i].proportion */\n      0x01\n      add\n      sload\n        /* \"contract.sol\":3506:3526  recipientProportions */\n      dup3\n        /* \"contract.sol\":3527:3528  i */\n      dup3\n        /* \"contract.sol\":3506:3529  recipientProportions[i] */\n      dup2\n      mload\n      dup2\n      lt\n      tag_89\n      jumpi\n      tag_90\n      tag_82\n      jump\t// in\n    tag_90:\n    tag_89:\n      0x20\n      mul\n      0x20\n      add\n      add\n        /* \"contract.sol\":3506:3556  recipientProportions[i] = recipients[i].proportion */\n      dup2\n      dup2\n      mstore\n      pop\n      pop\n        /* \"contract.sol\":3424:3427  i++ */\n      dup1\n      dup1\n      tag_91\n      swap1\n      tag_92\n      jump\t// in\n    tag_91:\n      swap2\n      pop\n      pop\n        /* \"contract.sol\":3384:3568  for (uint i = 0; i < recipients.length; i++) {... */\n      jump(tag_77)\n    tag_78:\n      pop\n        /* \"contract.sol\":3586:3604  recipientAddresses */\n      dup2\n        /* \"contract.sol\":3606:3626  recipientProportions */\n      dup2\n        /* \"contract.sol\":3578:3627  return (recipientAddresses, recipientProportions) */\n      swap4\n      pop\n      swap4\n      pop\n      pop\n      pop\n        /* \"contract.sol\":3126:3635  function getRecipients() public view returns (address[] memory, uint256[] memory){... */\n      swap1\n      swap2\n      jump\t// out\n        /* \"contract.sol\":2342:3120  function distribute() public onlyOwner validateTotalProportion {... */\n    tag_44:\n        /* \"contract.sol\":632:637  owner */\n      0x00\n      dup1\n      sload\n      swap1\n      0x0100\n      exp\n      swap1\n      div\n      0xffffffffffffffffffffffffffffffffffffffff\n      and\n        /* \"contract.sol\":618:637  msg.sender == owner */\n      0xffffffffffffffffffffffffffffffffffffffff\n      and\n        /* \"contract.sol\":618:628  msg.sender */\n      caller\n        /* \"contract.sol\":618:637  msg.sender == owner */\n      0xffffffffffffffffffffffffffffffffffffffff\n      and\n      eq\n        /* \"contract.sol\":610:689  require(msg.sender == owner, \"Only the contract owner can perform this action\") */\n      tag_94\n      jumpi\n      mload(0x40)\n      0x08c379a000000000000000000000000000000000000000000000000000000000\n      dup2\n      mstore\n      0x04\n      add\n      tag_95\n      swap1\n      tag_96\n      jump\t// in\n    tag_95:\n      mload(0x40)\n      dup1\n      swap2\n      sub\n      swap1\n      revert\n    tag_94:\n        /* \"contract.sol\":1430:1433  100 */\n      0x64\n        /* \"contract.sol\":1411:1426  totalProportion */\n      sload(0x03)\n        /* \"contract.sol\":1411:1433  totalProportion == 100 */\n      eq\n        /* \"contract.sol\":1403:1466  require(totalProportion == 100, \"Total proportion must be 100\") */\n      tag_98\n      jumpi\n      mload(0x40)\n      0x08c379a000000000000000000000000000000000000000000000000000000000\n      dup2\n      mstore\n      0x04\n      add\n      tag_99\n      swap1\n      tag_100\n      jump\t// in\n    tag_99:\n      mload(0x40)\n      dup1\n      swap2\n      sub\n      swap1\n      revert\n    tag_98:\n        /* \"contract.sol\":2441:2442  0 */\n      0x00\n        /* \"contract.sol\":2424:2438  totalDeposited */\n      sload(0x02)\n        /* \"contract.sol\":2424:2442  totalDeposited > 0 */\n      gt\n        /* \"contract.sol\":2416:2483  require(totalDeposited > 0, \"No ethers available for distribution\") */\n      tag_102\n      jumpi\n      mload(0x40)\n      0x08c379a000000000000000000000000000000000000000000000000000000000\n      dup2\n      mstore\n      0x04\n      add\n      tag_103\n      swap1\n      tag_104\n      jump\t// in\n    tag_103:\n      mload(0x40)\n      dup1\n      swap2\n      sub\n      swap1\n      revert\n    tag_102:\n        /* \"contract.sol\":2527:2541  totalDeposited */\n      sload(0x02)\n        /* \"contract.sol\":2502:2523  address(this).balance */\n      selfbalance\n        /* \"contract.sol\":2502:2541  address(this).balance >= totalDeposited */\n      lt\n      iszero\n        /* \"contract.sol\":2494:2575  require(address(this).balance >= totalDeposited, \"Insufficient contract balance\") */\n      tag_105\n      jumpi\n      mload(0x40)\n      0x08c379a000000000000000000000000000000000000000000000000000000000\n      dup2\n      mstore\n      0x04\n      add\n      tag_106\n      swap1\n      tag_107\n      jump\t// in\n    tag_106:\n      mload(0x40)\n      dup1\n      swap2\n      sub\n      swap1\n      revert\n    tag_105:\n        /* \"contract.sol\":2613:2614  0 */\n      0x00\n        /* \"contract.sol\":2594:2604  recipients */\n      0x04\n        /* \"contract.sol\":2594:2611  recipients.length */\n      dup1\n      sload\n      swap1\n      pop\n        /* \"contract.sol\":2594:2614  recipients.length >0 */\n      gt\n        /* \"contract.sol\":2586:2660  require(recipients.length >0,  \"No recipients available for distribution\") */\n      tag_108\n      jumpi\n      mload(0x40)\n      0x08c379a000000000000000000000000000000000000000000000000000000000\n      dup2\n      mstore\n      0x04\n      add\n      tag_109\n      swap1\n      tag_110\n      jump\t// in\n    tag_109:\n      mload(0x40)\n      dup1\n      swap2\n      sub\n      swap1\n      revert\n    tag_108:\n        /* \"contract.sol\":2698:2699  0 */\n      0x00\n        /* \"contract.sol\":2679:2694  totalProportion */\n      sload(0x03)\n        /* \"contract.sol\":2679:2699  totalProportion == 0 */\n      eq\n        /* \"contract.sol\":2671:2732  require(totalProportion == 0, \"Total proportion must be 100\") */\n      tag_111\n      jumpi\n      mload(0x40)\n      0x08c379a000000000000000000000000000000000000000000000000000000000\n      dup2\n      mstore\n      0x04\n      add\n      tag_112\n      swap1\n      tag_100\n      jump\t// in\n    tag_112:\n      mload(0x40)\n      dup1\n      swap2\n      sub\n      swap1\n      revert\n    tag_111:\n        /* \"contract.sol\":2748:2754  uint i */\n      0x00\n        /* \"contract.sol\":2743:3076  for (uint i = 0; i < recipients.length; i++) {... */\n    tag_113:\n        /* \"contract.sol\":2764:2774  recipients */\n      0x04\n        /* \"contract.sol\":2764:2781  recipients.length */\n      dup1\n      sload\n      swap1\n      pop\n        /* \"contract.sol\":2760:2761  i */\n      dup2\n        /* \"contract.sol\":2760:2781  i < recipients.length */\n      lt\n        /* \"contract.sol\":2743:3076  for (uint i = 0; i < recipients.length; i++) {... */\n      iszero\n      tag_114\n      jumpi\n        /* \"contract.sol\":2803:2816  uint256 share */\n      0x00\n        /* \"contract.sol\":2863:2866  100 */\n      0x64\n        /* \"contract.sol\":2836:2846  recipients */\n      0x04\n        /* \"contract.sol\":2847:2848  i */\n      dup4\n        /* \"contract.sol\":2836:2849  recipients[i] */\n      dup2\n      sload\n      dup2\n      lt\n      tag_116\n      jumpi\n      tag_117\n      tag_82\n      jump\t// in\n    tag_117:\n    tag_116:\n      swap1\n      0x00\n      mstore\n      keccak256(0x00, 0x20)\n      swap1\n      0x02\n      mul\n      add\n        /* \"contract.sol\":2836:2860  recipients[i].proportion */\n      0x01\n      add\n      sload\n        /* \"contract.sol\":2819:2833  totalDeposited */\n      sload(0x02)\n        /* \"contract.sol\":2819:2860  totalDeposited * recipients[i].proportion */\n      tag_119\n      swap2\n      swap1\n      tag_120\n      jump\t// in\n    tag_119:\n        /* \"contract.sol\":2819:2866  totalDeposited * recipients[i].proportion / 100 */\n      tag_121\n      swap2\n      swap1\n      tag_122\n      jump\t// in\n    tag_121:\n        /* \"contract.sol\":2803:2866  uint256 share = totalDeposited * recipients[i].proportion / 100 */\n      swap1\n      pop\n        /* \"contract.sol\":2945:2957  bool success */\n      0x00\n        /* \"contract.sol\":2963:2973  recipients */\n      0x04\n        /* \"contract.sol\":2974:2975  i */\n      dup4\n        /* \"contract.sol\":2963:2976  recipients[i] */\n      dup2\n      sload\n      dup2\n      lt\n      tag_123\n      jumpi\n      tag_124\n      tag_82\n      jump\t// in\n    tag_124:\n    tag_123:\n      swap1\n      0x00\n      mstore\n      keccak256(0x00, 0x20)\n      swap1\n      0x02\n      mul\n      add\n        /* \"contract.sol\":2963:2986  recipients[i].recipient */\n      0x00\n      add\n      0x00\n      swap1\n      sload\n      swap1\n      0x0100\n      exp\n      swap1\n      div\n      0xffffffffffffffffffffffffffffffffffffffff\n      and\n        /* \"contract.sol\":2963:2991  recipients[i].recipient.call */\n      0xffffffffffffffffffffffffffffffffffffffff\n      and\n        /* \"contract.sol\":2999:3004  share */\n      dup3\n        /* \"contract.sol\":2963:3009  recipients[i].recipient.call{value: share}(\"\") */\n      mload(0x40)\n      tag_126\n      swap1\n      tag_127\n      jump\t// in\n    tag_126:\n      0x00\n      mload(0x40)\n      dup1\n      dup4\n      sub\n      dup2\n      dup6\n      dup8\n      gas\n      call\n      swap3\n      pop\n      pop\n      pop\n      returndatasize\n      dup1\n      0x00\n      dup2\n      eq\n      tag_130\n      jumpi\n      mload(0x40)\n      swap2\n      pop\n      and(add(returndatasize, 0x3f), not(0x1f))\n      dup3\n      add\n      0x40\n      mstore\n      returndatasize\n      dup3\n      mstore\n      returndatasize\n      0x00\n      0x20\n      dup5\n      add\n      returndatacopy\n      jump(tag_129)\n    tag_130:\n      0x60\n      swap2\n      pop\n    tag_129:\n      pop\n        /* \"contract.sol\":2944:3009  (bool success, ) = recipients[i].recipient.call{value: share}(\"\") */\n      pop\n      swap1\n      pop\n        /* \"contract.sol\":3032:3039  success */\n      dup1\n        /* \"contract.sol\":3024:3064  require(success, \"Failed to send Ether\") */\n      tag_131\n      jumpi\n      mload(0x40)\n      0x08c379a000000000000000000000000000000000000000000000000000000000\n      dup2\n      mstore\n      0x04\n      add\n      tag_132\n      swap1\n      tag_133\n      jump\t// in\n    tag_132:\n      mload(0x40)\n      dup1\n      swap2\n      sub\n      swap1\n      revert\n    tag_131:\n        /* \"contract.sol\":2788:3076  {... */\n      pop\n      pop\n        /* \"contract.sol\":2783:2786  i++ */\n      dup1\n      dup1\n      tag_134\n      swap1\n      tag_92\n      jump\t// in\n    tag_134:\n      swap2\n      pop\n      pop\n        /* \"contract.sol\":2743:3076  for (uint i = 0; i < recipients.length; i++) {... */\n      jump(tag_113)\n    tag_114:\n      pop\n        /* \"contract.sol\":3103:3104  0 */\n      0x00\n        /* \"contract.sol\":3086:3100  totalDeposited */\n      0x02\n        /* \"contract.sol\":3086:3104  totalDeposited = 0 */\n      dup2\n      swap1\n      sstore\n      pop\n        /* \"contract.sol\":2342:3120  function distribute() public onlyOwner validateTotalProportion {... */\n      jump\t// out\n        /* \"contract.sol\":1810:2270  function addRecipient(address recipient, uint256 proportion) public onlyOwner validateProportion(proportion) {... */\n    tag_49:\n        /* \"contract.sol\":632:637  owner */\n      0x00\n      dup1\n      sload\n      swap1\n      0x0100\n      exp\n      swap1\n      div\n      0xffffffffffffffffffffffffffffffffffffffff\n      and\n        /* \"contract.sol\":618:637  msg.sender == owner */\n      0xffffffffffffffffffffffffffffffffffffffff\n      and\n        /* \"contract.sol\":618:628  msg.sender */\n      caller\n        /* \"contract.sol\":618:637  msg.sender == owner */\n      0xffffffffffffffffffffffffffffffffffffffff\n      and\n      eq\n        /* \"contract.sol\":610:689  require(msg.sender == owner, \"Only the contract owner can perform this action\") */\n      tag_136\n      jumpi\n      mload(0x40)\n      0x08c379a000000000000000000000000000000000000000000000000000000000\n      dup2\n      mstore\n      0x04\n      add\n      tag_137\n      swap1\n      tag_96\n      jump\t// in\n    tag_137:\n      mload(0x40)\n      dup1\n      swap2\n      sub\n      swap1\n      revert\n    tag_136:\n        /* \"contract.sol\":1907:1917  proportion */\n      dup1\n        /* \"contract.sol\":1289:1290  0 */\n      0x00\n        /* \"contract.sol\":1276:1286  proportion */\n      dup2\n        /* \"contract.sol\":1276:1290  proportion > 0 */\n      gt\n        /* \"contract.sol\":1268:1331  require(proportion > 0, \"Proportion must be greater than zero\") */\n      tag_139\n      jumpi\n      mload(0x40)\n      0x08c379a000000000000000000000000000000000000000000000000000000000\n      dup2\n      mstore\n      0x04\n      add\n      tag_140\n      swap1\n      tag_141\n      jump\t// in\n    tag_140:\n      mload(0x40)\n      dup1\n      swap2\n      sub\n      swap1\n      revert\n    tag_139:\n        /* \"contract.sol\":1958:1960  50 */\n      0x32\n        /* \"contract.sol\":1938:1948  recipients */\n      0x04\n        /* \"contract.sol\":1938:1955  recipients.length */\n      dup1\n      sload\n      swap1\n      pop\n        /* \"contract.sol\":1938:1960  recipients.length < 50 */\n      lt\n        /* \"contract.sol\":1930:2001  require(recipients.length < 50, \"Maximum number of recipients reached\") */\n      tag_143\n      jumpi\n      mload(0x40)\n      0x08c379a000000000000000000000000000000000000000000000000000000000\n      dup2\n      mstore\n      0x04\n      add\n      tag_144\n      swap1\n      tag_145\n      jump\t// in\n    tag_144:\n      mload(0x40)\n      dup1\n      swap2\n      sub\n      swap1\n      revert\n    tag_143:\n        /* \"contract.sol\":2041:2042  0 */\n      0x00\n        /* \"contract.sol\":2020:2043  recipient != address(0) */\n      0xffffffffffffffffffffffffffffffffffffffff\n      and\n        /* \"contract.sol\":2020:2029  recipient */\n      dup4\n        /* \"contract.sol\":2020:2043  recipient != address(0) */\n      0xffffffffffffffffffffffffffffffffffffffff\n      and\n      sub\n        /* \"contract.sol\":2012:2073  require(recipient != address(0), \"Invalid recipient address\") */\n      tag_146\n      jumpi\n      mload(0x40)\n      0x08c379a000000000000000000000000000000000000000000000000000000000\n      dup2\n      mstore\n      0x04\n      add\n      tag_147\n      swap1\n      tag_148\n      jump\t// in\n    tag_147:\n      mload(0x40)\n      dup1\n      swap2\n      sub\n      swap1\n      revert\n    tag_146:\n        /* \"contract.sol\":2129:2139  recipients */\n      0x04\n        /* \"contract.sol\":2145:2177  Recipient(recipient, proportion) */\n      mload(0x40)\n      dup1\n      0x40\n      add\n      0x40\n      mstore\n      dup1\n        /* \"contract.sol\":2155:2164  recipient */\n      dup6\n        /* \"contract.sol\":2145:2177  Recipient(recipient, proportion) */\n      0xffffffffffffffffffffffffffffffffffffffff\n      and\n      dup2\n      mstore\n      0x20\n      add\n        /* \"contract.sol\":2166:2176  proportion */\n      dup5\n        /* \"contract.sol\":2145:2177  Recipient(recipient, proportion) */\n      dup2\n      mstore\n      pop\n        /* \"contract.sol\":2129:2178  recipients.push(Recipient(recipient, proportion)) */\n      swap1\n      dup1\n      0x01\n      dup2\n      sload\n      add\n      dup1\n      dup3\n      sstore\n      dup1\n      swap2\n      pop\n      pop\n      0x01\n      swap1\n      sub\n      swap1\n      0x00\n      mstore\n      keccak256(0x00, 0x20)\n      swap1\n      0x02\n      mul\n      add\n      0x00\n      swap1\n      swap2\n      swap1\n      swap2\n      swap1\n      swap2\n      pop\n      0x00\n      dup3\n      add\n      mload\n      dup2\n      0x00\n      add\n      exp(0x0100, 0x00)\n      dup2\n      sload\n      dup2\n      0xffffffffffffffffffffffffffffffffffffffff\n      mul\n      not\n      and\n      swap1\n      dup4\n      0xffffffffffffffffffffffffffffffffffffffff\n      and\n      mul\n      or\n      swap1\n      sstore\n      pop\n      0x20\n      dup3\n      add\n      mload\n      dup2\n      0x01\n      add\n      sstore\n      pop\n      pop\n        /* \"contract.sol\":2252:2262  proportion */\n      dup2\n        /* \"contract.sol\":2233:2248  totalProportion */\n      0x03\n      0x00\n        /* \"contract.sol\":2233:2262  totalProportion -= proportion */\n      dup3\n      dup3\n      sload\n      tag_150\n      swap2\n      swap1\n      tag_151\n      jump\t// in\n    tag_150:\n      swap3\n      pop\n      pop\n      dup2\n      swap1\n      sstore\n      pop\n        /* \"contract.sol\":700:701  _ */\n      pop\n        /* \"contract.sol\":1810:2270  function addRecipient(address recipient, uint256 proportion) public onlyOwner validateProportion(proportion) {... */\n      pop\n      pop\n      jump\t// out\n        /* \"contract.sol\":225:254  uint256 public totalDeposited */\n    tag_52:\n      sload(0x02)\n      dup2\n      jump\t// out\n        /* \"#utility.yul\":7:84   */\n    tag_152:\n        /* \"#utility.yul\":44:51   */\n      0x00\n        /* \"#utility.yul\":73:78   */\n      dup2\n        /* \"#utility.yul\":62:78   */\n      swap1\n      pop\n        /* \"#utility.yul\":7:84   */\n      swap2\n      swap1\n      pop\n      jump\t// out\n        /* \"#utility.yul\":90:208   */\n    tag_153:\n        /* \"#utility.yul\":177:201   */\n      tag_209\n        /* \"#utility.yul\":195:200   */\n      dup2\n        /* \"#utility.yul\":177:201   */\n      tag_152\n      jump\t// in\n    tag_209:\n        /* \"#utility.yul\":172:175   */\n      dup3\n        /* \"#utility.yul\":165:202   */\n      mstore\n        /* \"#utility.yul\":90:208   */\n      pop\n      pop\n      jump\t// out\n        /* \"#utility.yul\":214:436   */\n    tag_16:\n        /* \"#utility.yul\":307:311   */\n      0x00\n        /* \"#utility.yul\":345:347   */\n      0x20\n        /* \"#utility.yul\":334:343   */\n      dup3\n        /* \"#utility.yul\":330:348   */\n      add\n        /* \"#utility.yul\":322:348   */\n      swap1\n      pop\n        /* \"#utility.yul\":358:429   */\n      tag_211\n        /* \"#utility.yul\":426:427   */\n      0x00\n        /* \"#utility.yul\":415:424   */\n      dup4\n        /* \"#utility.yul\":411:428   */\n      add\n        /* \"#utility.yul\":402:408   */\n      dup5\n        /* \"#utility.yul\":358:429   */\n      tag_153\n      jump\t// in\n    tag_211:\n        /* \"#utility.yul\":214:436   */\n      swap3\n      swap2\n      pop\n      pop\n      jump\t// out\n        /* \"#utility.yul\":523:640   */\n    tag_155:\n        /* \"#utility.yul\":632:633   */\n      0x00\n        /* \"#utility.yul\":629:630   */\n      dup1\n        /* \"#utility.yul\":622:634   */\n      revert\n        /* \"#utility.yul\":769:895   */\n    tag_157:\n        /* \"#utility.yul\":806:813   */\n      0x00\n        /* \"#utility.yul\":846:888   */\n      0xffffffffffffffffffffffffffffffffffffffff\n        /* \"#utility.yul\":839:844   */\n      dup3\n        /* \"#utility.yul\":835:889   */\n      and\n        /* \"#utility.yul\":824:889   */\n      swap1\n      pop\n        /* \"#utility.yul\":769:895   */\n      swap2\n      swap1\n      pop\n      jump\t// out\n        /* \"#utility.yul\":901:997   */\n    tag_158:\n        /* \"#utility.yul\":938:945   */\n      0x00\n        /* \"#utility.yul\":967:991   */\n      tag_217\n        /* \"#utility.yul\":985:990   */\n      dup3\n        /* \"#utility.yul\":967:991   */\n      tag_157\n      jump\t// in\n    tag_217:\n        /* \"#utility.yul\":956:991   */\n      swap1\n      pop\n        /* \"#utility.yul\":901:997   */\n      swap2\n      swap1\n      pop\n      jump\t// out\n        /* \"#utility.yul\":1003:1125   */\n    tag_159:\n        /* \"#utility.yul\":1076:1100   */\n      tag_219\n        /* \"#utility.yul\":1094:1099   */\n      dup2\n        /* \"#utility.yul\":1076:1100   */\n      tag_158\n      jump\t// in\n    tag_219:\n        /* \"#utility.yul\":1069:1074   */\n      dup2\n        /* \"#utility.yul\":1066:1101   */\n      eq\n        /* \"#utility.yul\":1056:1119   */\n      tag_220\n      jumpi\n        /* \"#utility.yul\":1115:1116   */\n      0x00\n        /* \"#utility.yul\":1112:1113   */\n      dup1\n        /* \"#utility.yul\":1105:1117   */\n      revert\n        /* \"#utility.yul\":1056:1119   */\n    tag_220:\n        /* \"#utility.yul\":1003:1125   */\n      pop\n      jump\t// out\n        /* \"#utility.yul\":1131:1270   */\n    tag_160:\n        /* \"#utility.yul\":1177:1182   */\n      0x00\n        /* \"#utility.yul\":1215:1221   */\n      dup2\n        /* \"#utility.yul\":1202:1222   */\n      calldataload\n        /* \"#utility.yul\":1193:1222   */\n      swap1\n      pop\n        /* \"#utility.yul\":1231:1264   */\n      tag_222\n        /* \"#utility.yul\":1258:1263   */\n      dup2\n        /* \"#utility.yul\":1231:1264   */\n      tag_159\n      jump\t// in\n    tag_222:\n        /* \"#utility.yul\":1131:1270   */\n      swap3\n      swap2\n      pop\n      pop\n      jump\t// out\n        /* \"#utility.yul\":1276:1605   */\n    tag_20:\n        /* \"#utility.yul\":1335:1341   */\n      0x00\n        /* \"#utility.yul\":1384:1386   */\n      0x20\n        /* \"#utility.yul\":1372:1381   */\n      dup3\n        /* \"#utility.yul\":1363:1370   */\n      dup5\n        /* \"#utility.yul\":1359:1382   */\n      sub\n        /* \"#utility.yul\":1355:1387   */\n      slt\n        /* \"#utility.yul\":1352:1471   */\n      iszero\n      tag_224\n      jumpi\n        /* \"#utility.yul\":1390:1469   */\n      tag_225\n      tag_155\n      jump\t// in\n    tag_225:\n        /* \"#utility.yul\":1352:1471   */\n    tag_224:\n        /* \"#utility.yul\":1510:1511   */\n      0x00\n        /* \"#utility.yul\":1535:1588   */\n      tag_226\n        /* \"#utility.yul\":1580:1587   */\n      dup5\n        /* \"#utility.yul\":1571:1577   */\n      dup3\n        /* \"#utility.yul\":1560:1569   */\n      dup6\n        /* \"#utility.yul\":1556:1578   */\n      add\n        /* \"#utility.yul\":1535:1588   */\n      tag_160\n      jump\t// in\n    tag_226:\n        /* \"#utility.yul\":1525:1588   */\n      swap2\n      pop\n        /* \"#utility.yul\":1481:1598   */\n      pop\n        /* \"#utility.yul\":1276:1605   */\n      swap3\n      swap2\n      pop\n      pop\n      jump\t// out\n        /* \"#utility.yul\":1611:1729   */\n    tag_161:\n        /* \"#utility.yul\":1698:1722   */\n      tag_228\n        /* \"#utility.yul\":1716:1721   */\n      dup2\n        /* \"#utility.yul\":1698:1722   */\n      tag_158\n      jump\t// in\n    tag_228:\n        /* \"#utility.yul\":1693:1696   */\n      dup3\n        /* \"#utility.yul\":1686:1723   */\n      mstore\n        /* \"#utility.yul\":1611:1729   */\n      pop\n      pop\n      jump\t// out\n        /* \"#utility.yul\":1735:1957   */\n    tag_27:\n        /* \"#utility.yul\":1828:1832   */\n      0x00\n        /* \"#utility.yul\":1866:1868   */\n      0x20\n        /* \"#utility.yul\":1855:1864   */\n      dup3\n        /* \"#utility.yul\":1851:1869   */\n      add\n        /* \"#utility.yul\":1843:1869   */\n      swap1\n      pop\n        /* \"#utility.yul\":1879:1950   */\n      tag_230\n        /* \"#utility.yul\":1947:1948   */\n      0x00\n        /* \"#utility.yul\":1936:1945   */\n      dup4\n        /* \"#utility.yul\":1932:1949   */\n      add\n        /* \"#utility.yul\":1923:1929   */\n      dup5\n        /* \"#utility.yul\":1879:1950   */\n      tag_161\n      jump\t// in\n    tag_230:\n        /* \"#utility.yul\":1735:1957   */\n      swap3\n      swap2\n      pop\n      pop\n      jump\t// out\n        /* \"#utility.yul\":1963:2085   */\n    tag_162:\n        /* \"#utility.yul\":2036:2060   */\n      tag_232\n        /* \"#utility.yul\":2054:2059   */\n      dup2\n        /* \"#utility.yul\":2036:2060   */\n      tag_152\n      jump\t// in\n    tag_232:\n        /* \"#utility.yul\":2029:2034   */\n      dup2\n        /* \"#utility.yul\":2026:2061   */\n      eq\n        /* \"#utility.yul\":2016:2079   */\n      tag_233\n      jumpi\n        /* \"#utility.yul\":2075:2076   */\n      0x00\n        /* \"#utility.yul\":2072:2073   */\n      dup1\n        /* \"#utility.yul\":2065:2077   */\n      revert\n        /* \"#utility.yul\":2016:2079   */\n    tag_233:\n        /* \"#utility.yul\":1963:2085   */\n      pop\n      jump\t// out\n        /* \"#utility.yul\":2091:2230   */\n    tag_163:\n        /* \"#utility.yul\":2137:2142   */\n      0x00\n        /* \"#utility.yul\":2175:2181   */\n      dup2\n        /* \"#utility.yul\":2162:2182   */\n      calldataload\n        /* \"#utility.yul\":2153:2182   */\n      swap1\n      pop\n        /* \"#utility.yul\":2191:2224   */\n      tag_235\n        /* \"#utility.yul\":2218:2223   */\n      dup2\n        /* \"#utility.yul\":2191:2224   */\n      tag_162\n      jump\t// in\n    tag_235:\n        /* \"#utility.yul\":2091:2230   */\n      swap3\n      swap2\n      pop\n      pop\n      jump\t// out\n        /* \"#utility.yul\":2236:2565   */\n    tag_33:\n        /* \"#utility.yul\":2295:2301   */\n      0x00\n        /* \"#utility.yul\":2344:2346   */\n      0x20\n        /* \"#utility.yul\":2332:2341   */\n      dup3\n        /* \"#utility.yul\":2323:2330   */\n      dup5\n        /* \"#utility.yul\":2319:2342   */\n      sub\n        /* \"#utility.yul\":2315:2347   */\n      slt\n        /* \"#utility.yul\":2312:2431   */\n      iszero\n      tag_237\n      jumpi\n        /* \"#utility.yul\":2350:2429   */\n      tag_238\n      tag_155\n      jump\t// in\n    tag_238:\n        /* \"#utility.yul\":2312:2431   */\n    tag_237:\n        /* \"#utility.yul\":2470:2471   */\n      0x00\n        /* \"#utility.yul\":2495:2548   */\n      tag_239\n        /* \"#utility.yul\":2540:2547   */\n      dup5\n        /* \"#utility.yul\":2531:2537   */\n      dup3\n        /* \"#utility.yul\":2520:2529   */\n      dup6\n        /* \"#utility.yul\":2516:2538   */\n      add\n        /* \"#utility.yul\":2495:2548   */\n      tag_163\n      jump\t// in\n    tag_239:\n        /* \"#utility.yul\":2485:2548   */\n      swap2\n      pop\n        /* \"#utility.yul\":2441:2558   */\n      pop\n        /* \"#utility.yul\":2236:2565   */\n      swap3\n      swap2\n      pop\n      pop\n      jump\t// out\n        /* \"#utility.yul\":2571:2903   */\n    tag_36:\n        /* \"#utility.yul\":2692:2696   */\n      0x00\n        /* \"#utility.yul\":2730:2732   */\n      0x40\n        /* \"#utility.yul\":2719:2728   */\n      dup3\n        /* \"#utility.yul\":2715:2733   */\n      add\n        /* \"#utility.yul\":2707:2733   */\n      swap1\n      pop\n        /* \"#utility.yul\":2743:2814   */\n      tag_241\n        /* \"#utility.yul\":2811:2812   */\n      0x00\n        /* \"#utility.yul\":2800:2809   */\n      dup4\n        /* \"#utility.yul\":2796:2813   */\n      add\n        /* \"#utility.yul\":2787:2793   */\n      dup6\n        /* \"#utility.yul\":2743:2814   */\n      tag_161\n      jump\t// in\n    tag_241:\n        /* \"#utility.yul\":2824:2896   */\n      tag_242\n        /* \"#utility.yul\":2892:2894   */\n      0x20\n        /* \"#utility.yul\":2881:2890   */\n      dup4\n        /* \"#utility.yul\":2877:2895   */\n      add\n        /* \"#utility.yul\":2868:2874   */\n      dup5\n        /* \"#utility.yul\":2824:2896   */\n      tag_153\n      jump\t// in\n    tag_242:\n        /* \"#utility.yul\":2571:2903   */\n      swap4\n      swap3\n      pop\n      pop\n      pop\n      jump\t// out\n        /* \"#utility.yul\":2909:3023   */\n    tag_164:\n        /* \"#utility.yul\":2976:2982   */\n      0x00\n        /* \"#utility.yul\":3010:3015   */\n      dup2\n        /* \"#utility.yul\":3004:3016   */\n      mload\n        /* \"#utility.yul\":2994:3016   */\n      swap1\n      pop\n        /* \"#utility.yul\":2909:3023   */\n      swap2\n      swap1\n      pop\n      jump\t// out\n        /* \"#utility.yul\":3029:3213   */\n    tag_165:\n        /* \"#utility.yul\":3128:3139   */\n      0x00\n        /* \"#utility.yul\":3162:3168   */\n      dup3\n        /* \"#utility.yul\":3157:3160   */\n      dup3\n        /* \"#utility.yul\":3150:3169   */\n      mstore\n        /* \"#utility.yul\":3202:3206   */\n      0x20\n        /* \"#utility.yul\":3197:3200   */\n      dup3\n        /* \"#utility.yul\":3193:3207   */\n      add\n        /* \"#utility.yul\":3178:3207   */\n      swap1\n      pop\n        /* \"#utility.yul\":3029:3213   */\n      swap3\n      swap2\n      pop\n      pop\n      jump\t// out\n        /* \"#utility.yul\":3219:3351   */\n    tag_166:\n        /* \"#utility.yul\":3286:3290   */\n      0x00\n        /* \"#utility.yul\":3309:3312   */\n      dup2\n        /* \"#utility.yul\":3301:3312   */\n      swap1\n      pop\n        /* \"#utility.yul\":3339:3343   */\n      0x20\n        /* \"#utility.yul\":3334:3337   */\n      dup3\n        /* \"#utility.yul\":3330:3344   */\n      add\n        /* \"#utility.yul\":3322:3344   */\n      swap1\n      pop\n        /* \"#utility.yul\":3219:3351   */\n      swap2\n      swap1\n      pop\n      jump\t// out\n        /* \"#utility.yul\":3357:3465   */\n    tag_167:\n        /* \"#utility.yul\":3434:3458   */\n      tag_247\n        /* \"#utility.yul\":3452:3457   */\n      dup2\n        /* \"#utility.yul\":3434:3458   */\n      tag_158\n      jump\t// in\n    tag_247:\n        /* \"#utility.yul\":3429:3432   */\n      dup3\n        /* \"#utility.yul\":3422:3459   */\n      mstore\n        /* \"#utility.yul\":3357:3465   */\n      pop\n      pop\n      jump\t// out\n        /* \"#utility.yul\":3471:3650   */\n    tag_168:\n        /* \"#utility.yul\":3540:3550   */\n      0x00\n        /* \"#utility.yul\":3561:3607   */\n      tag_249\n        /* \"#utility.yul\":3603:3606   */\n      dup4\n        /* \"#utility.yul\":3595:3601   */\n      dup4\n        /* \"#utility.yul\":3561:3607   */\n      tag_167\n      jump\t// in\n    tag_249:\n        /* \"#utility.yul\":3639:3643   */\n      0x20\n        /* \"#utility.yul\":3634:3637   */\n      dup4\n        /* \"#utility.yul\":3630:3644   */\n      add\n        /* \"#utility.yul\":3616:3644   */\n      swap1\n      pop\n        /* \"#utility.yul\":3471:3650   */\n      swap3\n      swap2\n      pop\n      pop\n      jump\t// out\n        /* \"#utility.yul\":3656:3769   */\n    tag_169:\n        /* \"#utility.yul\":3726:3730   */\n      0x00\n        /* \"#utility.yul\":3758:3762   */\n      0x20\n        /* \"#utility.yul\":3753:3756   */\n      dup3\n        /* \"#utility.yul\":3749:3763   */\n      add\n        /* \"#utility.yul\":3741:3763   */\n      swap1\n      pop\n        /* \"#utility.yul\":3656:3769   */\n      swap2\n      swap1\n      pop\n      jump\t// out\n        /* \"#utility.yul\":3805:4537   */\n    tag_170:\n        /* \"#utility.yul\":3924:3927   */\n      0x00\n        /* \"#utility.yul\":3953:4007   */\n      tag_252\n        /* \"#utility.yul\":4001:4006   */\n      dup3\n        /* \"#utility.yul\":3953:4007   */\n      tag_164\n      jump\t// in\n    tag_252:\n        /* \"#utility.yul\":4023:4109   */\n      tag_253\n        /* \"#utility.yul\":4102:4108   */\n      dup2\n        /* \"#utility.yul\":4097:4100   */\n      dup6\n        /* \"#utility.yul\":4023:4109   */\n      tag_165\n      jump\t// in\n    tag_253:\n        /* \"#utility.yul\":4016:4109   */\n      swap4\n      pop\n        /* \"#utility.yul\":4133:4189   */\n      tag_254\n        /* \"#utility.yul\":4183:4188   */\n      dup4\n        /* \"#utility.yul\":4133:4189   */\n      tag_166\n      jump\t// in\n    tag_254:\n        /* \"#utility.yul\":4212:4219   */\n      dup1\n        /* \"#utility.yul\":4243:4244   */\n      0x00\n        /* \"#utility.yul\":4228:4512   */\n    tag_255:\n        /* \"#utility.yul\":4253:4259   */\n      dup4\n        /* \"#utility.yul\":4250:4251   */\n      dup2\n        /* \"#utility.yul\":4247:4260   */\n      lt\n        /* \"#utility.yul\":4228:4512   */\n      iszero\n      tag_257\n      jumpi\n        /* \"#utility.yul\":4329:4335   */\n      dup2\n        /* \"#utility.yul\":4323:4336   */\n      mload\n        /* \"#utility.yul\":4356:4419   */\n      tag_258\n        /* \"#utility.yul\":4415:4418   */\n      dup9\n        /* \"#utility.yul\":4400:4413   */\n      dup3\n        /* \"#utility.yul\":4356:4419   */\n      tag_168\n      jump\t// in\n    tag_258:\n        /* \"#utility.yul\":4349:4419   */\n      swap8\n      pop\n        /* \"#utility.yul\":4442:4502   */\n      tag_259\n        /* \"#utility.yul\":4495:4501   */\n      dup4\n        /* \"#utility.yul\":4442:4502   */\n      tag_169\n      jump\t// in\n    tag_259:\n        /* \"#utility.yul\":4432:4502   */\n      swap3\n      pop\n        /* \"#utility.yul\":4288:4512   */\n      pop\n        /* \"#utility.yul\":4275:4276   */\n      0x01\n        /* \"#utility.yul\":4272:4273   */\n      dup2\n        /* \"#utility.yul\":4268:4277   */\n      add\n        /* \"#utility.yul\":4263:4277   */\n      swap1\n      pop\n        /* \"#utility.yul\":4228:4512   */\n      jump(tag_255)\n    tag_257:\n        /* \"#utility.yul\":4232:4246   */\n      pop\n        /* \"#utility.yul\":4528:4531   */\n      dup6\n        /* \"#utility.yul\":4521:4531   */\n      swap4\n      pop\n        /* \"#utility.yul\":3929:4537   */\n      pop\n      pop\n      pop\n        /* \"#utility.yul\":3805:4537   */\n      swap3\n      swap2\n      pop\n      pop\n      jump\t// out\n        /* \"#utility.yul\":4543:4657   */\n    tag_171:\n        /* \"#utility.yul\":4610:4616   */\n      0x00\n        /* \"#utility.yul\":4644:4649   */\n      dup2\n        /* \"#utility.yul\":4638:4650   */\n      mload\n        /* \"#utility.yul\":4628:4650   */\n      swap1\n      pop\n        /* \"#utility.yul\":4543:4657   */\n      swap2\n      swap1\n      pop\n      jump\t// out\n        /* \"#utility.yul\":4663:4847   */\n    tag_172:\n        /* \"#utility.yul\":4762:4773   */\n      0x00\n        /* \"#utility.yul\":4796:4802   */\n      dup3\n        /* \"#utility.yul\":4791:4794   */\n      dup3\n        /* \"#utility.yul\":4784:4803   */\n      mstore\n        /* \"#utility.yul\":4836:4840   */\n      0x20\n        /* \"#utility.yul\":4831:4834   */\n      dup3\n        /* \"#utility.yul\":4827:4841   */\n      add\n        /* \"#utility.yul\":4812:4841   */\n      swap1\n      pop\n        /* \"#utility.yul\":4663:4847   */\n      swap3\n      swap2\n      pop\n      pop\n      jump\t// out\n        /* \"#utility.yul\":4853:4985   */\n    tag_173:\n        /* \"#utility.yul\":4920:4924   */\n      0x00\n        /* \"#utility.yul\":4943:4946   */\n      dup2\n        /* \"#utility.yul\":4935:4946   */\n      swap1\n      pop\n        /* \"#utility.yul\":4973:4977   */\n      0x20\n        /* \"#utility.yul\":4968:4971   */\n      dup3\n        /* \"#utility.yul\":4964:4978   */\n      add\n        /* \"#utility.yul\":4956:4978   */\n      swap1\n      pop\n        /* \"#utility.yul\":4853:4985   */\n      swap2\n      swap1\n      pop\n      jump\t// out\n        /* \"#utility.yul\":4991:5099   */\n    tag_174:\n        /* \"#utility.yul\":5068:5092   */\n      tag_264\n        /* \"#utility.yul\":5086:5091   */\n      dup2\n        /* \"#utility.yul\":5068:5092   */\n      tag_152\n      jump\t// in\n    tag_264:\n        /* \"#utility.yul\":5063:5066   */\n      dup3\n        /* \"#utility.yul\":5056:5093   */\n      mstore\n        /* \"#utility.yul\":4991:5099   */\n      pop\n      pop\n      jump\t// out\n        /* \"#utility.yul\":5105:5284   */\n    tag_175:\n        /* \"#utility.yul\":5174:5184   */\n      0x00\n        /* \"#utility.yul\":5195:5241   */\n      tag_266\n        /* \"#utility.yul\":5237:5240   */\n      dup4\n        /* \"#utility.yul\":5229:5235   */\n      dup4\n        /* \"#utility.yul\":5195:5241   */\n      tag_174\n      jump\t// in\n    tag_266:\n        /* \"#utility.yul\":5273:5277   */\n      0x20\n        /* \"#utility.yul\":5268:5271   */\n      dup4\n        /* \"#utility.yul\":5264:5278   */\n      add\n        /* \"#utility.yul\":5250:5278   */\n      swap1\n      pop\n        /* \"#utility.yul\":5105:5284   */\n      swap3\n      swap2\n      pop\n      pop\n      jump\t// out\n        /* \"#utility.yul\":5290:5403   */\n    tag_176:\n        /* \"#utility.yul\":5360:5364   */\n      0x00\n        /* \"#utility.yul\":5392:5396   */\n      0x20\n        /* \"#utility.yul\":5387:5390   */\n      dup3\n        /* \"#utility.yul\":5383:5397   */\n      add\n        /* \"#utility.yul\":5375:5397   */\n      swap1\n      pop\n        /* \"#utility.yul\":5290:5403   */\n      swap2\n      swap1\n      pop\n      jump\t// out\n        /* \"#utility.yul\":5439:6171   */\n    tag_177:\n        /* \"#utility.yul\":5558:5561   */\n      0x00\n        /* \"#utility.yul\":5587:5641   */\n      tag_269\n        /* \"#utility.yul\":5635:5640   */\n      dup3\n        /* \"#utility.yul\":5587:5641   */\n      tag_171\n      jump\t// in\n    tag_269:\n        /* \"#utility.yul\":5657:5743   */\n      tag_270\n        /* \"#utility.yul\":5736:5742   */\n      dup2\n        /* \"#utility.yul\":5731:5734   */\n      dup6\n        /* \"#utility.yul\":5657:5743   */\n      tag_172\n      jump\t// in\n    tag_270:\n        /* \"#utility.yul\":5650:5743   */\n      swap4\n      pop\n        /* \"#utility.yul\":5767:5823   */\n      tag_271\n        /* \"#utility.yul\":5817:5822   */\n      dup4\n        /* \"#utility.yul\":5767:5823   */\n      tag_173\n      jump\t// in\n    tag_271:\n        /* \"#utility.yul\":5846:5853   */\n      dup1\n        /* \"#utility.yul\":5877:5878   */\n      0x00\n        /* \"#utility.yul\":5862:6146   */\n    tag_272:\n        /* \"#utility.yul\":5887:5893   */\n      dup4\n        /* \"#utility.yul\":5884:5885   */\n      dup2\n        /* \"#utility.yul\":5881:5894   */\n      lt\n        /* \"#utility.yul\":5862:6146   */\n      iszero\n      tag_274\n      jumpi\n        /* \"#utility.yul\":5963:5969   */\n      dup2\n        /* \"#utility.yul\":5957:5970   */\n      mload\n        /* \"#utility.yul\":5990:6053   */\n      tag_275\n        /* \"#utility.yul\":6049:6052   */\n      dup9\n        /* \"#utility.yul\":6034:6047   */\n      dup3\n        /* \"#utility.yul\":5990:6053   */\n      tag_175\n      jump\t// in\n    tag_275:\n        /* \"#utility.yul\":5983:6053   */\n      swap8\n      pop\n        /* \"#utility.yul\":6076:6136   */\n      tag_276\n        /* \"#utility.yul\":6129:6135   */\n      dup4\n        /* \"#utility.yul\":6076:6136   */\n      tag_176\n      jump\t// in\n    tag_276:\n        /* \"#utility.yul\":6066:6136   */\n      swap3\n      pop\n        /* \"#utility.yul\":5922:6146   */\n      pop\n        /* \"#utility.yul\":5909:5910   */\n      0x01\n        /* \"#utility.yul\":5906:5907   */\n      dup2\n        /* \"#utility.yul\":5902:5911   */\n      add\n        /* \"#utility.yul\":5897:5911   */\n      swap1\n      pop\n        /* \"#utility.yul\":5862:6146   */\n      jump(tag_272)\n    tag_274:\n        /* \"#utility.yul\":5866:5880   */\n      pop\n        /* \"#utility.yul\":6162:6165   */\n      dup6\n        /* \"#utility.yul\":6155:6165   */\n      swap4\n      pop\n        /* \"#utility.yul\":5563:6171   */\n      pop\n      pop\n      pop\n        /* \"#utility.yul\":5439:6171   */\n      swap3\n      swap2\n      pop\n      pop\n      jump\t// out\n        /* \"#utility.yul\":6177:6811   */\n    tag_41:\n        /* \"#utility.yul\":6398:6402   */\n      0x00\n        /* \"#utility.yul\":6436:6438   */\n      0x40\n        /* \"#utility.yul\":6425:6434   */\n      dup3\n        /* \"#utility.yul\":6421:6439   */\n      add\n        /* \"#utility.yul\":6413:6439   */\n      swap1\n      pop\n        /* \"#utility.yul\":6485:6494   */\n      dup2\n        /* \"#utility.yul\":6479:6483   */\n      dup2\n        /* \"#utility.yul\":6475:6495   */\n      sub\n        /* \"#utility.yul\":6471:6472   */\n      0x00\n        /* \"#utility.yul\":6460:6469   */\n      dup4\n        /* \"#utility.yul\":6456:6473   */\n      add\n        /* \"#utility.yul\":6449:6496   */\n      mstore\n        /* \"#utility.yul\":6513:6621   */\n      tag_278\n        /* \"#utility.yul\":6616:6620   */\n      dup2\n        /* \"#utility.yul\":6607:6613   */\n      dup6\n        /* \"#utility.yul\":6513:6621   */\n      tag_170\n      jump\t// in\n    tag_278:\n        /* \"#utility.yul\":6505:6621   */\n      swap1\n      pop\n        /* \"#utility.yul\":6668:6677   */\n      dup2\n        /* \"#utility.yul\":6662:6666   */\n      dup2\n        /* \"#utility.yul\":6658:6678   */\n      sub\n        /* \"#utility.yul\":6653:6655   */\n      0x20\n        /* \"#utility.yul\":6642:6651   */\n      dup4\n        /* \"#utility.yul\":6638:6656   */\n      add\n        /* \"#utility.yul\":6631:6679   */\n      mstore\n        /* \"#utility.yul\":6696:6804   */\n      tag_279\n        /* \"#utility.yul\":6799:6803   */\n      dup2\n        /* \"#utility.yul\":6790:6796   */\n      dup5\n        /* \"#utility.yul\":6696:6804   */\n      tag_177\n      jump\t// in\n    tag_279:\n        /* \"#utility.yul\":6688:6804   */\n      swap1\n      pop\n        /* \"#utility.yul\":6177:6811   */\n      swap4\n      swap3\n      pop\n      pop\n      pop\n      jump\t// out\n        /* \"#utility.yul\":6817:7291   */\n    tag_48:\n        /* \"#utility.yul\":6885:6891   */\n      0x00\n        /* \"#utility.yul\":6893:6899   */\n      dup1\n        /* \"#utility.yul\":6942:6944   */\n      0x40\n        /* \"#utility.yul\":6930:6939   */\n      dup4\n        /* \"#utility.yul\":6921:6928   */\n      dup6\n        /* \"#utility.yul\":6917:6940   */\n      sub\n        /* \"#utility.yul\":6913:6945   */\n      slt\n        /* \"#utility.yul\":6910:7029   */\n      iszero\n      tag_281\n      jumpi\n        /* \"#utility.yul\":6948:7027   */\n      tag_282\n      tag_155\n      jump\t// in\n    tag_282:\n        /* \"#utility.yul\":6910:7029   */\n    tag_281:\n        /* \"#utility.yul\":7068:7069   */\n      0x00\n        /* \"#utility.yul\":7093:7146   */\n      tag_283\n        /* \"#utility.yul\":7138:7145   */\n      dup6\n        /* \"#utility.yul\":7129:7135   */\n      dup3\n        /* \"#utility.yul\":7118:7127   */\n      dup7\n        /* \"#utility.yul\":7114:7136   */\n      add\n        /* \"#utility.yul\":7093:7146   */\n      tag_160\n      jump\t// in\n    tag_283:\n        /* \"#utility.yul\":7083:7146   */\n      swap3\n      pop\n        /* \"#utility.yul\":7039:7156   */\n      pop\n        /* \"#utility.yul\":7195:7197   */\n      0x20\n        /* \"#utility.yul\":7221:7274   */\n      tag_284\n        /* \"#utility.yul\":7266:7273   */\n      dup6\n        /* \"#utility.yul\":7257:7263   */\n      dup3\n        /* \"#utility.yul\":7246:7255   */\n      dup7\n        /* \"#utility.yul\":7242:7264   */\n      add\n        /* \"#utility.yul\":7221:7274   */\n      tag_163\n      jump\t// in\n    tag_284:\n        /* \"#utility.yul\":7211:7274   */\n      swap2\n      pop\n        /* \"#utility.yul\":7166:7284   */\n      pop\n        /* \"#utility.yul\":6817:7291   */\n      swap3\n      pop\n      swap3\n      swap1\n      pop\n      jump\t// out\n        /* \"#utility.yul\":7297:7466   */\n    tag_178:\n        /* \"#utility.yul\":7381:7392   */\n      0x00\n        /* \"#utility.yul\":7415:7421   */\n      dup3\n        /* \"#utility.yul\":7410:7413   */\n      dup3\n        /* \"#utility.yul\":7403:7422   */\n      mstore\n        /* \"#utility.yul\":7455:7459   */\n      0x20\n        /* \"#utility.yul\":7450:7453   */\n      dup3\n        /* \"#utility.yul\":7446:7460   */\n      add\n        /* \"#utility.yul\":7431:7460   */\n      swap1\n      pop\n        /* \"#utility.yul\":7297:7466   */\n      swap3\n      swap2\n      pop\n      pop\n      jump\t// out\n        /* \"#utility.yul\":7472:7692   */\n    tag_179:\n        /* \"#utility.yul\":7612:7646   */\n      0x4d696e696d756d206465706f73697420616d6f756e7420697320312045746865\n        /* \"#utility.yul\":7608:7609   */\n      0x00\n        /* \"#utility.yul\":7600:7606   */\n      dup3\n        /* \"#utility.yul\":7596:7610   */\n      add\n        /* \"#utility.yul\":7589:7647   */\n      mstore\n        /* \"#utility.yul\":7681:7684   */\n      0x7200000000000000000000000000000000000000000000000000000000000000\n        /* \"#utility.yul\":7676:7678   */\n      0x20\n        /* \"#utility.yul\":7668:7674   */\n      dup3\n        /* \"#utility.yul\":7664:7679   */\n      add\n        /* \"#utility.yul\":7657:7685   */\n      mstore\n        /* \"#utility.yul\":7472:7692   */\n      pop\n      jump\t// out\n        /* \"#utility.yul\":7698:8064   */\n    tag_180:\n        /* \"#utility.yul\":7840:7843   */\n      0x00\n        /* \"#utility.yul\":7861:7928   */\n      tag_288\n        /* \"#utility.yul\":7925:7927   */\n      0x21\n        /* \"#utility.yul\":7920:7923   */\n      dup4\n        /* \"#utility.yul\":7861:7928   */\n      tag_178\n      jump\t// in\n    tag_288:\n        /* \"#utility.yul\":7854:7928   */\n      swap2\n      pop\n        /* \"#utility.yul\":7937:8030   */\n      tag_289\n        /* \"#utility.yul\":8026:8029   */\n      dup3\n        /* \"#utility.yul\":7937:8030   */\n      tag_179\n      jump\t// in\n    tag_289:\n        /* \"#utility.yul\":8055:8057   */\n      0x40\n        /* \"#utility.yul\":8050:8053   */\n      dup3\n        /* \"#utility.yul\":8046:8058   */\n      add\n        /* \"#utility.yul\":8039:8058   */\n      swap1\n      pop\n        /* \"#utility.yul\":7698:8064   */\n      swap2\n      swap1\n      pop\n      jump\t// out\n        /* \"#utility.yul\":8070:8489   */\n    tag_57:\n        /* \"#utility.yul\":8236:8240   */\n      0x00\n        /* \"#utility.yul\":8274:8276   */\n      0x20\n        /* \"#utility.yul\":8263:8272   */\n      dup3\n        /* \"#utility.yul\":8259:8277   */\n      add\n        /* \"#utility.yul\":8251:8277   */\n      swap1\n      pop\n        /* \"#utility.yul\":8323:8332   */\n      dup2\n        /* \"#utility.yul\":8317:8321   */\n      dup2\n        /* \"#utility.yul\":8313:8333   */\n      sub\n        /* \"#utility.yul\":8309:8310   */\n      0x00\n        /* \"#utility.yul\":8298:8307   */\n      dup4\n        /* \"#utility.yul\":8294:8311   */\n      add\n        /* \"#utility.yul\":8287:8334   */\n      mstore\n        /* \"#utility.yul\":8351:8482   */\n      tag_291\n        /* \"#utility.yul\":8477:8481   */\n      dup2\n        /* \"#utility.yul\":8351:8482   */\n      tag_180\n      jump\t// in\n    tag_291:\n        /* \"#utility.yul\":8343:8482   */\n      swap1\n      pop\n        /* \"#utility.yul\":8070:8489   */\n      swap2\n      swap1\n      pop\n      jump\t// out\n        /* \"#utility.yul\":8495:8675   */\n    tag_181:\n        /* \"#utility.yul\":8543:8620   */\n      0x4e487b7100000000000000000000000000000000000000000000000000000000\n        /* \"#utility.yul\":8540:8541   */\n      0x00\n        /* \"#utility.yul\":8533:8621   */\n      mstore\n        /* \"#utility.yul\":8640:8644   */\n      0x11\n        /* \"#utility.yul\":8637:8638   */\n      0x04\n        /* \"#utility.yul\":8630:8645   */\n      mstore\n        /* \"#utility.yul\":8664:8668   */\n      0x24\n        /* \"#utility.yul\":8661:8662   */\n      0x00\n        /* \"#utility.yul\":8654:8669   */\n      revert\n        /* \"#utility.yul\":8681:8872   */\n    tag_60:\n        /* \"#utility.yul\":8721:8724   */\n      0x00\n        /* \"#utility.yul\":8740:8760   */\n      tag_294\n        /* \"#utility.yul\":8758:8759   */\n      dup3\n        /* \"#utility.yul\":8740:8760   */\n      tag_152\n      jump\t// in\n    tag_294:\n        /* \"#utility.yul\":8735:8760   */\n      swap2\n      pop\n        /* \"#utility.yul\":8774:8794   */\n      tag_295\n        /* \"#utility.yul\":8792:8793   */\n      dup4\n        /* \"#utility.yul\":8774:8794   */\n      tag_152\n      jump\t// in\n    tag_295:\n        /* \"#utility.yul\":8769:8794   */\n      swap3\n      pop\n        /* \"#utility.yul\":8817:8818   */\n      dup3\n        /* \"#utility.yul\":8814:8815   */\n      dup3\n        /* \"#utility.yul\":8810:8819   */\n      add\n        /* \"#utility.yul\":8803:8819   */\n      swap1\n      pop\n        /* \"#utility.yul\":8838:8841   */\n      dup1\n        /* \"#utility.yul\":8835:8836   */\n      dup3\n        /* \"#utility.yul\":8832:8842   */\n      gt\n        /* \"#utility.yul\":8829:8865   */\n      iszero\n      tag_296\n      jumpi\n        /* \"#utility.yul\":8845:8863   */\n      tag_297\n      tag_181\n      jump\t// in\n    tag_297:\n        /* \"#utility.yul\":8829:8865   */\n    tag_296:\n        /* \"#utility.yul\":8681:8872   */\n      swap3\n      swap2\n      pop\n      pop\n      jump\t// out\n        /* \"#utility.yul\":8878:9060   */\n    tag_182:\n        /* \"#utility.yul\":9018:9052   */\n      0x4d6178696d756d20636f6e74726163742062616c616e63652072656163686564\n        /* \"#utility.yul\":9014:9015   */\n      0x00\n        /* \"#utility.yul\":9006:9012   */\n      dup3\n        /* \"#utility.yul\":9002:9016   */\n      add\n        /* \"#utility.yul\":8995:9053   */\n      mstore\n        /* \"#utility.yul\":8878:9060   */\n      pop\n      jump\t// out\n        /* \"#utility.yul\":9066:9432   */\n    tag_183:\n        /* \"#utility.yul\":9208:9211   */\n      0x00\n        /* \"#utility.yul\":9229:9296   */\n      tag_300\n        /* \"#utility.yul\":9293:9295   */\n      0x20\n        /* \"#utility.yul\":9288:9291   */\n      dup4\n        /* \"#utility.yul\":9229:9296   */\n      tag_178\n      jump\t// in\n    tag_300:\n        /* \"#utility.yul\":9222:9296   */\n      swap2\n      pop\n        /* \"#utility.yul\":9305:9398   */\n      tag_301\n        /* \"#utility.yul\":9394:9397   */\n      dup3\n        /* \"#utility.yul\":9305:9398   */\n      tag_182\n      jump\t// in\n    tag_301:\n        /* \"#utility.yul\":9423:9425   */\n      0x20\n        /* \"#utility.yul\":9418:9421   */\n      dup3\n        /* \"#utility.yul\":9414:9426   */\n      add\n        /* \"#utility.yul\":9407:9426   */\n      swap1\n      pop\n        /* \"#utility.yul\":9066:9432   */\n      swap2\n      swap1\n      pop\n      jump\t// out\n        /* \"#utility.yul\":9438:9857   */\n    tag_63:\n        /* \"#utility.yul\":9604:9608   */\n      0x00\n        /* \"#utility.yul\":9642:9644   */\n      0x20\n        /* \"#utility.yul\":9631:9640   */\n      dup3\n        /* \"#utility.yul\":9627:9645   */\n      add\n        /* \"#utility.yul\":9619:9645   */\n      swap1\n      pop\n        /* \"#utility.yul\":9691:9700   */\n      dup2\n        /* \"#utility.yul\":9685:9689   */\n      dup2\n        /* \"#utility.yul\":9681:9701   */\n      sub\n        /* \"#utility.yul\":9677:9678   */\n      0x00\n        /* \"#utility.yul\":9666:9675   */\n      dup4\n        /* \"#utility.yul\":9662:9679   */\n      add\n        /* \"#utility.yul\":9655:9702   */\n      mstore\n        /* \"#utility.yul\":9719:9850   */\n      tag_303\n        /* \"#utility.yul\":9845:9849   */\n      dup2\n        /* \"#utility.yul\":9719:9850   */\n      tag_183\n      jump\t// in\n    tag_303:\n        /* \"#utility.yul\":9711:9850   */\n      swap1\n      pop\n        /* \"#utility.yul\":9438:9857   */\n      swap2\n      swap1\n      pop\n      jump\t// out\n        /* \"#utility.yul\":9863:10043   */\n    tag_72:\n        /* \"#utility.yul\":9911:9988   */\n      0x4e487b7100000000000000000000000000000000000000000000000000000000\n        /* \"#utility.yul\":9908:9909   */\n      0x00\n        /* \"#utility.yul\":9901:9989   */\n      mstore\n        /* \"#utility.yul\":10008:10012   */\n      0x41\n        /* \"#utility.yul\":10005:10006   */\n      0x04\n        /* \"#utility.yul\":9998:10013   */\n      mstore\n        /* \"#utility.yul\":10032:10036   */\n      0x24\n        /* \"#utility.yul\":10029:10030   */\n      0x00\n        /* \"#utility.yul\":10022:10037   */\n      revert\n        /* \"#utility.yul\":10049:10229   */\n    tag_82:\n        /* \"#utility.yul\":10097:10174   */\n      0x4e487b7100000000000000000000000000000000000000000000000000000000\n        /* \"#utility.yul\":10094:10095   */\n      0x00\n        /* \"#utility.yul\":10087:10175   */\n      mstore\n        /* \"#utility.yul\":10194:10198   */\n      0x32\n        /* \"#utility.yul\":10191:10192   */\n      0x04\n        /* \"#utility.yul\":10184:10199   */\n      mstore\n        /* \"#utility.yul\":10218:10222   */\n      0x24\n        /* \"#utility.yul\":10215:10216   */\n      0x00\n        /* \"#utility.yul\":10208:10223   */\n      revert\n        /* \"#utility.yul\":10235:10468   */\n    tag_92:\n        /* \"#utility.yul\":10274:10277   */\n      0x00\n        /* \"#utility.yul\":10297:10321   */\n      tag_307\n        /* \"#utility.yul\":10315:10320   */\n      dup3\n        /* \"#utility.yul\":10297:10321   */\n      tag_152\n      jump\t// in\n    tag_307:\n        /* \"#utility.yul\":10288:10321   */\n      swap2\n      pop\n        /* \"#utility.yul\":10343:10409   */\n      0xffffffffffffffffffffffffffffffffffffffffffffffffffffffffffffffff\n        /* \"#utility.yul\":10336:10341   */\n      dup3\n        /* \"#utility.yul\":10333:10410   */\n      sub\n        /* \"#utility.yul\":10330:10433   */\n      tag_308\n      jumpi\n        /* \"#utility.yul\":10413:10431   */\n      tag_309\n      tag_181\n      jump\t// in\n    tag_309:\n        /* \"#utility.yul\":10330:10433   */\n    tag_308:\n        /* \"#utility.yul\":10460:10461   */\n      0x01\n        /* \"#utility.yul\":10453:10458   */\n      dup3\n        /* \"#utility.yul\":10449:10462   */\n      add\n        /* \"#utility.yul\":10442:10462   */\n      swap1\n      pop\n        /* \"#utility.yul\":10235:10468   */\n      swap2\n      swap1\n      pop\n      jump\t// out\n        /* \"#utility.yul\":10474:10708   */\n    tag_184:\n        /* \"#utility.yul\":10614:10648   */\n      0x4f6e6c792074686520636f6e7472616374206f776e65722063616e2070657266\n        /* \"#utility.yul\":10610:10611   */\n      0x00\n        /* \"#utility.yul\":10602:10608   */\n      dup3\n        /* \"#utility.yul\":10598:10612   */\n      add\n        /* \"#utility.yul\":10591:10649   */\n      mstore\n        /* \"#utility.yul\":10683:10700   */\n      0x6f726d207468697320616374696f6e0000000000000000000000000000000000\n        /* \"#utility.yul\":10678:10680   */\n      0x20\n        /* \"#utility.yul\":10670:10676   */\n      dup3\n        /* \"#utility.yul\":10666:10681   */\n      add\n        /* \"#utility.yul\":10659:10701   */\n      mstore\n        /* \"#utility.yul\":10474:10708   */\n      pop\n      jump\t// out\n        /* \"#utility.yul\":10714:11080   */\n    tag_185:\n        /* \"#utility.yul\":10856:10859   */\n      0x00\n        /* \"#utility.yul\":10877:10944   */\n      tag_312\n        /* \"#utility.yul\":10941:10943   */\n      0x2f\n        /* \"#utility.yul\":10936:10939   */\n      dup4\n        /* \"#utility.yul\":10877:10944   */\n      tag_178\n      jump\t// in\n    tag_312:\n        /* \"#utility.yul\":10870:10944   */\n      swap2\n      pop\n        /* \"#utility.yul\":10953:11046   */\n      tag_313\n        /* \"#utility.yul\":11042:11045   */\n      dup3\n        /* \"#utility.yul\":10953:11046   */\n      tag_184\n      jump\t// in\n    tag_313:\n        /* \"#utility.yul\":11071:11073   */\n      0x40\n        /* \"#utility.yul\":11066:11069   */\n      dup3\n        /* \"#utility.yul\":11062:11074   */\n      add\n        /* \"#utility.yul\":11055:11074   */\n      swap1\n      pop\n        /* \"#utility.yul\":10714:11080   */\n      swap2\n      swap1\n      pop\n      jump\t// out\n        /* \"#utility.yul\":11086:11505   */\n    tag_96:\n        /* \"#utility.yul\":11252:11256   */\n      0x00\n        /* \"#utility.yul\":11290:11292   */\n      0x20\n        /* \"#utility.yul\":11279:11288   */\n      dup3\n        /* \"#utility.yul\":11275:11293   */\n      add\n        /* \"#utility.yul\":11267:11293   */\n      swap1\n      pop\n        /* \"#utility.yul\":11339:11348   */\n      dup2\n        /* \"#utility.yul\":11333:11337   */\n      dup2\n        /* \"#utility.yul\":11329:11349   */\n      sub\n        /* \"#utility.yul\":11325:11326   */\n      0x00\n        /* \"#utility.yul\":11314:11323   */\n      dup4\n        /* \"#utility.yul\":11310:11327   */\n      add\n        /* \"#utility.yul\":11303:11350   */\n      mstore\n        /* \"#utility.yul\":11367:11498   */\n      tag_315\n        /* \"#utility.yul\":11493:11497   */\n      dup2\n        /* \"#utility.yul\":11367:11498   */\n      tag_185\n      jump\t// in\n    tag_315:\n        /* \"#utility.yul\":11359:11498   */\n      swap1\n      pop\n        /* \"#utility.yul\":11086:11505   */\n      swap2\n      swap1\n      pop\n      jump\t// out\n        /* \"#utility.yul\":11511:11689   */\n    tag_186:\n        /* \"#utility.yul\":11651:11681   */\n      0x546f74616c2070726f706f7274696f6e206d7573742062652031303000000000\n        /* \"#utility.yul\":11647:11648   */\n      0x00\n        /* \"#utility.yul\":11639:11645   */\n      dup3\n        /* \"#utility.yul\":11635:11649   */\n      add\n        /* \"#utility.yul\":11628:11682   */\n      mstore\n        /* \"#utility.yul\":11511:11689   */\n      pop\n      jump\t// out\n        /* \"#utility.yul\":11695:12061   */\n    tag_187:\n        /* \"#utility.yul\":11837:11840   */\n      0x00\n        /* \"#utility.yul\":11858:11925   */\n      tag_318\n        /* \"#utility.yul\":11922:11924   */\n      0x1c\n        /* \"#utility.yul\":11917:11920   */\n      dup4\n        /* \"#utility.yul\":11858:11925   */\n      tag_178\n      jump\t// in\n    tag_318:\n        /* \"#utility.yul\":11851:11925   */\n      swap2\n      pop\n        /* \"#utility.yul\":11934:12027   */\n      tag_319\n        /* \"#utility.yul\":12023:12026   */\n      dup3\n        /* \"#utility.yul\":11934:12027   */\n      tag_186\n      jump\t// in\n    tag_319:\n        /* \"#utility.yul\":12052:12054   */\n      0x20\n        /* \"#utility.yul\":12047:12050   */\n      dup3\n        /* \"#utility.yul\":12043:12055   */\n      add\n        /* \"#utility.yul\":12036:12055   */\n      swap1\n      pop\n        /* \"#utility.yul\":11695:12061   */\n      swap2\n      swap1\n      pop\n      jump\t// out\n        /* \"#utility.yul\":12067:12486   */\n    tag_100:\n        /* \"#utility.yul\":12233:12237   */\n      0x00\n        /* \"#utility.yul\":12271:12273   */\n      0x20\n        /* \"#utility.yul\":12260:12269   */\n      dup3\n        /* \"#utility.yul\":12256:12274   */\n      add\n        /* \"#utility.yul\":12248:12274   */\n      swap1\n      pop\n        /* \"#utility.yul\":12320:12329   */\n      dup2\n        /* \"#utility.yul\":12314:12318   */\n      dup2\n        /* \"#utility.yul\":12310:12330   */\n      sub\n        /* \"#utility.yul\":12306:12307   */\n      0x00\n        /* \"#utility.yul\":12295:12304   */\n      dup4\n        /* \"#utility.yul\":12291:12308   */\n      add\n        /* \"#utility.yul\":12284:12331   */\n      mstore\n        /* \"#utility.yul\":12348:12479   */\n      tag_321\n        /* \"#utility.yul\":12474:12478   */\n      dup2\n        /* \"#utility.yul\":12348:12479   */\n      tag_187\n      jump\t// in\n    tag_321:\n        /* \"#utility.yul\":12340:12479   */\n      swap1\n      pop\n        /* \"#utility.yul\":12067:12486   */\n      swap2\n      swap1\n      pop\n      jump\t// out\n        /* \"#utility.yul\":12492:12715   */\n    tag_188:\n        /* \"#utility.yul\":12632:12666   */\n      0x4e6f2065746865727320617661696c61626c6520666f72206469737472696275\n        /* \"#utility.yul\":12628:12629   */\n      0x00\n        /* \"#utility.yul\":12620:12626   */\n      dup3\n        /* \"#utility.yul\":12616:12630   */\n      add\n        /* \"#utility.yul\":12609:12667   */\n      mstore\n        /* \"#utility.yul\":12701:12707   */\n      0x74696f6e00000000000000000000000000000000000000000000000000000000\n        /* \"#utility.yul\":12696:12698   */\n      0x20\n        /* \"#utility.yul\":12688:12694   */\n      dup3\n        /* \"#utility.yul\":12684:12699   */\n      add\n        /* \"#utility.yul\":12677:12708   */\n      mstore\n        /* \"#utility.yul\":12492:12715   */\n      pop\n      jump\t// out\n        /* \"#utility.yul\":12721:13087   */\n    tag_189:\n        /* \"#utility.yul\":12863:12866   */\n      0x00\n        /* \"#utility.yul\":12884:12951   */\n      tag_324\n        /* \"#utility.yul\":12948:12950   */\n      0x24\n        /* \"#utility.yul\":12943:12946   */\n      dup4\n        /* \"#utility.yul\":12884:12951   */\n      tag_178\n      jump\t// in\n    tag_324:\n        /* \"#utility.yul\":12877:12951   */\n      swap2\n      pop\n        /* \"#utility.yul\":12960:13053   */\n      tag_325\n        /* \"#utility.yul\":13049:13052   */\n      dup3\n        /* \"#utility.yul\":12960:13053   */\n      tag_188\n      jump\t// in\n    tag_325:\n        /* \"#utility.yul\":13078:13080   */\n      0x40\n        /* \"#utility.yul\":13073:13076   */\n      dup3\n        /* \"#utility.yul\":13069:13081   */\n      add\n        /* \"#utility.yul\":13062:13081   */\n      swap1\n      pop\n        /* \"#utility.yul\":12721:13087   */\n      swap2\n      swap1\n      pop\n      jump\t// out\n        /* \"#utility.yul\":13093:13512   */\n    tag_104:\n        /* \"#utility.yul\":13259:13263   */\n      0x00\n        /* \"#utility.yul\":13297:13299   */\n      0x20\n        /* \"#utility.yul\":13286:13295   */\n      dup3\n        /* \"#utility.yul\":13282:13300   */\n      add\n        /* \"#utility.yul\":13274:13300   */\n      swap1\n      pop\n        /* \"#utility.yul\":13346:13355   */\n      dup2\n        /* \"#utility.yul\":13340:13344   */\n      dup2\n        /* \"#utility.yul\":13336:13356   */\n      sub\n        /* \"#utility.yul\":13332:13333   */\n      0x00\n        /* \"#utility.yul\":13321:13330   */\n      dup4\n        /* \"#utility.yul\":13317:13334   */\n      add\n        /* \"#utility.yul\":13310:13357   */\n      mstore\n        /* \"#utility.yul\":13374:13505   */\n      tag_327\n        /* \"#utility.yul\":13500:13504   */\n      dup2\n        /* \"#utility.yul\":13374:13505   */\n      tag_189\n      jump\t// in\n    tag_327:\n        /* \"#utility.yul\":13366:13505   */\n      swap1\n      pop\n        /* \"#utility.yul\":13093:13512   */\n      swap2\n      swap1\n      pop\n      jump\t// out\n        /* \"#utility.yul\":13518:13697   */\n    tag_190:\n        /* \"#utility.yul\":13658:13689   */\n      0x496e73756666696369656e7420636f6e74726163742062616c616e6365000000\n        /* \"#utility.yul\":13654:13655   */\n      0x00\n        /* \"#utility.yul\":13646:13652   */\n      dup3\n        /* \"#utility.yul\":13642:13656   */\n      add\n        /* \"#utility.yul\":13635:13690   */\n      mstore\n        /* \"#utility.yul\":13518:13697   */\n      pop\n      jump\t// out\n        /* \"#utility.yul\":13703:14069   */\n    tag_191:\n        /* \"#utility.yul\":13845:13848   */\n      0x00\n        /* \"#utility.yul\":13866:13933   */\n      tag_330\n        /* \"#utility.yul\":13930:13932   */\n      0x1d\n        /* \"#utility.yul\":13925:13928   */\n      dup4\n        /* \"#utility.yul\":13866:13933   */\n      tag_178\n      jump\t// in\n    tag_330:\n        /* \"#utility.yul\":13859:13933   */\n      swap2\n      pop\n        /* \"#utility.yul\":13942:14035   */\n      tag_331\n        /* \"#utility.yul\":14031:14034   */\n      dup3\n        /* \"#utility.yul\":13942:14035   */\n      tag_190\n      jump\t// in\n    tag_331:\n        /* \"#utility.yul\":14060:14062   */\n      0x20\n        /* \"#utility.yul\":14055:14058   */\n      dup3\n        /* \"#utility.yul\":14051:14063   */\n      add\n        /* \"#utility.yul\":14044:14063   */\n      swap1\n      pop\n        /* \"#utility.yul\":13703:14069   */\n      swap2\n      swap1\n      pop\n      jump\t// out\n        /* \"#utility.yul\":14075:14494   */\n    tag_107:\n        /* \"#utility.yul\":14241:14245   */\n      0x00\n        /* \"#utility.yul\":14279:14281   */\n      0x20\n        /* \"#utility.yul\":14268:14277   */\n      dup3\n        /* \"#utility.yul\":14264:14282   */\n      add\n        /* \"#utility.yul\":14256:14282   */\n      swap1\n      pop\n        /* \"#utility.yul\":14328:14337   */\n      dup2\n        /* \"#utility.yul\":14322:14326   */\n      dup2\n        /* \"#utility.yul\":14318:14338   */\n      sub\n        /* \"#utility.yul\":14314:14315   */\n      0x00\n        /* \"#utility.yul\":14303:14312   */\n      dup4\n        /* \"#utility.yul\":14299:14316   */\n      add\n        /* \"#utility.yul\":14292:14339   */\n      mstore\n        /* \"#utility.yul\":14356:14487   */\n      tag_333\n        /* \"#utility.yul\":14482:14486   */\n      dup2\n        /* \"#utility.yul\":14356:14487   */\n      tag_191\n      jump\t// in\n    tag_333:\n        /* \"#utility.yul\":14348:14487   */\n      swap1\n      pop\n        /* \"#utility.yul\":14075:14494   */\n      swap2\n      swap1\n      pop\n      jump\t// out\n        /* \"#utility.yul\":14500:14727   */\n    tag_192:\n        /* \"#utility.yul\":14640:14674   */\n      0x4e6f20726563697069656e747320617661696c61626c6520666f722064697374\n        /* \"#utility.yul\":14636:14637   */\n      0x00\n        /* \"#utility.yul\":14628:14634   */\n      dup3\n        /* \"#utility.yul\":14624:14638   */\n      add\n        /* \"#utility.yul\":14617:14675   */\n      mstore\n        /* \"#utility.yul\":14709:14719   */\n      0x7269627574696f6e000000000000000000000000000000000000000000000000\n        /* \"#utility.yul\":14704:14706   */\n      0x20\n        /* \"#utility.yul\":14696:14702   */\n      dup3\n        /* \"#utility.yul\":14692:14707   */\n      add\n        /* \"#utility.yul\":14685:14720   */\n      mstore\n        /* \"#utility.yul\":14500:14727   */\n      pop\n      jump\t// out\n        /* \"#utility.yul\":14733:15099   */\n    tag_193:\n        /* \"#utility.yul\":14875:14878   */\n      0x00\n        /* \"#utility.yul\":14896:14963   */\n      tag_336\n        /* \"#utility.yul\":14960:14962   */\n      0x28\n        /* \"#utility.yul\":14955:14958   */\n      dup4\n        /* \"#utility.yul\":14896:14963   */\n      tag_178\n      jump\t// in\n    tag_336:\n        /* \"#utility.yul\":14889:14963   */\n      swap2\n      pop\n        /* \"#utility.yul\":14972:15065   */\n      tag_337\n        /* \"#utility.yul\":15061:15064   */\n      dup3\n        /* \"#utility.yul\":14972:15065   */\n      tag_192\n      jump\t// in\n    tag_337:\n        /* \"#utility.yul\":15090:15092   */\n      0x40\n        /* \"#utility.yul\":15085:15088   */\n      dup3\n        /* \"#utility.yul\":15081:15093   */\n      add\n        /* \"#utility.yul\":15074:15093   */\n      swap1\n      pop\n        /* \"#utility.yul\":14733:15099   */\n      swap2\n      swap1\n      pop\n      jump\t// out\n        /* \"#utility.yul\":15105:15524   */\n    tag_110:\n        /* \"#utility.yul\":15271:15275   */\n      0x00\n        /* \"#utility.yul\":15309:15311   */\n      0x20\n        /* \"#utility.yul\":15298:15307   */\n      dup3\n        /* \"#utility.yul\":15294:15312   */\n      add\n        /* \"#utility.yul\":15286:15312   */\n      swap1\n      pop\n        /* \"#utility.yul\":15358:15367   */\n      dup2\n        /* \"#utility.yul\":15352:15356   */\n      dup2\n        /* \"#utility.yul\":15348:15368   */\n      sub\n        /* \"#utility.yul\":15344:15345   */\n      0x00\n        /* \"#utility.yul\":15333:15342   */\n      dup4\n        /* \"#utility.yul\":15329:15346   */\n      add\n        /* \"#utility.yul\":15322:15369   */\n      mstore\n        /* \"#utility.yul\":15386:15517   */\n      tag_339\n        /* \"#utility.yul\":15512:15516   */\n      dup2\n        /* \"#utility.yul\":15386:15517   */\n      tag_193\n      jump\t// in\n    tag_339:\n        /* \"#utility.yul\":15378:15517   */\n      swap1\n      pop\n        /* \"#utility.yul\":15105:15524   */\n      swap2\n      swap1\n      pop\n      jump\t// out\n        /* \"#utility.yul\":15530:15940   */\n    tag_120:\n        /* \"#utility.yul\":15570:15577   */\n      0x00\n        /* \"#utility.yul\":15593:15613   */\n      tag_341\n        /* \"#utility.yul\":15611:15612   */\n      dup3\n        /* \"#utility.yul\":15593:15613   */\n      tag_152\n      jump\t// in\n    tag_341:\n        /* \"#utility.yul\":15588:15613   */\n      swap2\n      pop\n        /* \"#utility.yul\":15627:15647   */\n      tag_342\n        /* \"#utility.yul\":15645:15646   */\n      dup4\n        /* \"#utility.yul\":15627:15647   */\n      tag_152\n      jump\t// in\n    tag_342:\n        /* \"#utility.yul\":15622:15647   */\n      swap3\n      pop\n        /* \"#utility.yul\":15682:15683   */\n      dup3\n        /* \"#utility.yul\":15679:15680   */\n      dup3\n        /* \"#utility.yul\":15675:15684   */\n      mul\n        /* \"#utility.yul\":15704:15734   */\n      tag_343\n        /* \"#utility.yul\":15722:15733   */\n      dup2\n        /* \"#utility.yul\":15704:15734   */\n      tag_152\n      jump\t// in\n    tag_343:\n        /* \"#utility.yul\":15693:15734   */\n      swap2\n      pop\n        /* \"#utility.yul\":15883:15884   */\n      dup3\n        /* \"#utility.yul\":15874:15881   */\n      dup3\n        /* \"#utility.yul\":15870:15885   */\n      div\n        /* \"#utility.yul\":15867:15868   */\n      dup5\n        /* \"#utility.yul\":15864:15886   */\n      eq\n        /* \"#utility.yul\":15844:15845   */\n      dup4\n        /* \"#utility.yul\":15837:15846   */\n      iszero\n        /* \"#utility.yul\":15817:15900   */\n      or\n        /* \"#utility.yul\":15794:15933   */\n      tag_344\n      jumpi\n        /* \"#utility.yul\":15913:15931   */\n      tag_345\n      tag_181\n      jump\t// in\n    tag_345:\n        /* \"#utility.yul\":15794:15933   */\n    tag_344:\n        /* \"#utility.yul\":15578:15940   */\n      pop\n        /* \"#utility.yul\":15530:15940   */\n      swap3\n      swap2\n      pop\n      pop\n      jump\t// out\n        /* \"#utility.yul\":15946:16126   */\n    tag_194:\n        /* \"#utility.yul\":15994:16071   */\n      0x4e487b7100000000000000000000000000000000000000000000000000000000\n        /* \"#utility.yul\":15991:15992   */\n      0x00\n        /* \"#utility.yul\":15984:16072   */\n      mstore\n        /* \"#utility.yul\":16091:16095   */\n      0x12\n        /* \"#utility.yul\":16088:16089   */\n      0x04\n        /* \"#utility.yul\":16081:16096   */\n      mstore\n        /* \"#utility.yul\":16115:16119   */\n      0x24\n        /* \"#utility.yul\":16112:16113   */\n      0x00\n        /* \"#utility.yul\":16105:16120   */\n      revert\n        /* \"#utility.yul\":16132:16317   */\n    tag_122:\n        /* \"#utility.yul\":16172:16173   */\n      0x00\n        /* \"#utility.yul\":16189:16209   */\n      tag_348\n        /* \"#utility.yul\":16207:16208   */\n      dup3\n        /* \"#utility.yul\":16189:16209   */\n      tag_152\n      jump\t// in\n    tag_348:\n        /* \"#utility.yul\":16184:16209   */\n      swap2\n      pop\n        /* \"#utility.yul\":16223:16243   */\n      tag_349\n        /* \"#utility.yul\":16241:16242   */\n      dup4\n        /* \"#utility.yul\":16223:16243   */\n      tag_152\n      jump\t// in\n    tag_349:\n        /* \"#utility.yul\":16218:16243   */\n      swap3\n      pop\n        /* \"#utility.yul\":16262:16263   */\n      dup3\n        /* \"#utility.yul\":16252:16287   */\n      tag_350\n      jumpi\n        /* \"#utility.yul\":16267:16285   */\n      tag_351\n      tag_194\n      jump\t// in\n    tag_351:\n        /* \"#utility.yul\":16252:16287   */\n    tag_350:\n        /* \"#utility.yul\":16309:16310   */\n      dup3\n        /* \"#utility.yul\":16306:16307   */\n      dup3\n        /* \"#utility.yul\":16302:16311   */\n      div\n        /* \"#utility.yul\":16297:16311   */\n      swap1\n      pop\n        /* \"#utility.yul\":16132:16317   */\n      swap3\n      swap2\n      pop\n      pop\n      jump\t// out\n        /* \"#utility.yul\":16323:16470   */\n    tag_195:\n        /* \"#utility.yul\":16424:16435   */\n      0x00\n        /* \"#utility.yul\":16461:16464   */\n      dup2\n        /* \"#utility.yul\":16446:16464   */\n      swap1\n      pop\n        /* \"#utility.yul\":16323:16470   */\n      swap3\n      swap2\n      pop\n      pop\n      jump\t// out\n        /* \"#utility.yul\":16476:16590   */\n    tag_196:\n      pop\n      jump\t// out\n        /* \"#utility.yul\":16596:16994   */\n    tag_197:\n        /* \"#utility.yul\":16755:16758   */\n      0x00\n        /* \"#utility.yul\":16776:16859   */\n      tag_355\n        /* \"#utility.yul\":16857:16858   */\n      0x00\n        /* \"#utility.yul\":16852:16855   */\n      dup4\n        /* \"#utility.yul\":16776:16859   */\n      tag_195\n      jump\t// in\n    tag_355:\n        /* \"#utility.yul\":16769:16859   */\n      swap2\n      pop\n        /* \"#utility.yul\":16868:16961   */\n      tag_356\n        /* \"#utility.yul\":16957:16960   */\n      dup3\n        /* \"#utility.yul\":16868:16961   */\n      tag_196\n      jump\t// in\n    tag_356:\n        /* \"#utility.yul\":16986:16987   */\n      0x00\n        /* \"#utility.yul\":16981:16984   */\n      dup3\n        /* \"#utility.yul\":16977:16988   */\n      add\n        /* \"#utility.yul\":16970:16988   */\n      swap1\n      pop\n        /* \"#utility.yul\":16596:16994   */\n      swap2\n      swap1\n      pop\n      jump\t// out\n        /* \"#utility.yul\":17000:17379   */\n    tag_127:\n        /* \"#utility.yul\":17184:17187   */\n      0x00\n        /* \"#utility.yul\":17206:17353   */\n      tag_358\n        /* \"#utility.yul\":17349:17352   */\n      dup3\n        /* \"#utility.yul\":17206:17353   */\n      tag_197\n      jump\t// in\n    tag_358:\n        /* \"#utility.yul\":17199:17353   */\n      swap2\n      pop\n        /* \"#utility.yul\":17370:17373   */\n      dup2\n        /* \"#utility.yul\":17363:17373   */\n      swap1\n      pop\n        /* \"#utility.yul\":17000:17379   */\n      swap2\n      swap1\n      pop\n      jump\t// out\n        /* \"#utility.yul\":17385:17555   */\n    tag_198:\n        /* \"#utility.yul\":17525:17547   */\n      0x4661696c656420746f2073656e64204574686572000000000000000000000000\n        /* \"#utility.yul\":17521:17522   */\n      0x00\n        /* \"#utility.yul\":17513:17519   */\n      dup3\n        /* \"#utility.yul\":17509:17523   */\n      add\n        /* \"#utility.yul\":17502:17548   */\n      mstore\n        /* \"#utility.yul\":17385:17555   */\n      pop\n      jump\t// out\n        /* \"#utility.yul\":17561:17927   */\n    tag_199:\n        /* \"#utility.yul\":17703:17706   */\n      0x00\n        /* \"#utility.yul\":17724:17791   */\n      tag_361\n        /* \"#utility.yul\":17788:17790   */\n      0x14\n        /* \"#utility.yul\":17783:17786   */\n      dup4\n        /* \"#utility.yul\":17724:17791   */\n      tag_178\n      jump\t// in\n    tag_361:\n        /* \"#utility.yul\":17717:17791   */\n      swap2\n      pop\n        /* \"#utility.yul\":17800:17893   */\n      tag_362\n        /* \"#utility.yul\":17889:17892   */\n      dup3\n        /* \"#utility.yul\":17800:17893   */\n      tag_198\n      jump\t// in\n    tag_362:\n        /* \"#utility.yul\":17918:17920   */\n      0x20\n        /* \"#utility.yul\":17913:17916   */\n      dup3\n        /* \"#utility.yul\":17909:17921   */\n      add\n        /* \"#utility.yul\":17902:17921   */\n      swap1\n      pop\n        /* \"#utility.yul\":17561:17927   */\n      swap2\n      swap1\n      pop\n      jump\t// out\n        /* \"#utility.yul\":17933:18352   */\n    tag_133:\n        /* \"#utility.yul\":18099:18103   */\n      0x00\n        /* \"#utility.yul\":18137:18139   */\n      0x20\n        /* \"#utility.yul\":18126:18135   */\n      dup3\n        /* \"#utility.yul\":18122:18140   */\n      add\n        /* \"#utility.yul\":18114:18140   */\n      swap1\n      pop\n        /* \"#utility.yul\":18186:18195   */\n      dup2\n        /* \"#utility.yul\":18180:18184   */\n      dup2\n        /* \"#utility.yul\":18176:18196   */\n      sub\n        /* \"#utility.yul\":18172:18173   */\n      0x00\n        /* \"#utility.yul\":18161:18170   */\n      dup4\n        /* \"#utility.yul\":18157:18174   */\n      add\n        /* \"#utility.yul\":18150:18197   */\n      mstore\n        /* \"#utility.yul\":18214:18345   */\n      tag_364\n        /* \"#utility.yul\":18340:18344   */\n      dup2\n        /* \"#utility.yul\":18214:18345   */\n      tag_199\n      jump\t// in\n    tag_364:\n        /* \"#utility.yul\":18206:18345   */\n      swap1\n      pop\n        /* \"#utility.yul\":17933:18352   */\n      swap2\n      swap1\n      pop\n      jump\t// out\n        /* \"#utility.yul\":18358:18581   */\n    tag_200:\n        /* \"#utility.yul\":18498:18532   */\n      0x50726f706f7274696f6e206d7573742062652067726561746572207468616e20\n        /* \"#utility.yul\":18494:18495   */\n      0x00\n        /* \"#utility.yul\":18486:18492   */\n      dup3\n        /* \"#utility.yul\":18482:18496   */\n      add\n        /* \"#utility.yul\":18475:18533   */\n      mstore\n        /* \"#utility.yul\":18567:18573   */\n      0x7a65726f00000000000000000000000000000000000000000000000000000000\n        /* \"#utility.yul\":18562:18564   */\n      0x20\n        /* \"#utility.yul\":18554:18560   */\n      dup3\n        /* \"#utility.yul\":18550:18565   */\n      add\n        /* \"#utility.yul\":18543:18574   */\n      mstore\n        /* \"#utility.yul\":18358:18581   */\n      pop\n      jump\t// out\n        /* \"#utility.yul\":18587:18953   */\n    tag_201:\n        /* \"#utility.yul\":18729:18732   */\n      0x00\n        /* \"#utility.yul\":18750:18817   */\n      tag_367\n        /* \"#utility.yul\":18814:18816   */\n      0x24\n        /* \"#utility.yul\":18809:18812   */\n      dup4\n        /* \"#utility.yul\":18750:18817   */\n      tag_178\n      jump\t// in\n    tag_367:\n        /* \"#utility.yul\":18743:18817   */\n      swap2\n      pop\n        /* \"#utility.yul\":18826:18919   */\n      tag_368\n        /* \"#utility.yul\":18915:18918   */\n      dup3\n        /* \"#utility.yul\":18826:18919   */\n      tag_200\n      jump\t// in\n    tag_368:\n        /* \"#utility.yul\":18944:18946   */\n      0x40\n        /* \"#utility.yul\":18939:18942   */\n      dup3\n        /* \"#utility.yul\":18935:18947   */\n      add\n        /* \"#utility.yul\":18928:18947   */\n      swap1\n      pop\n        /* \"#utility.yul\":18587:18953   */\n      swap2\n      swap1\n      pop\n      jump\t// out\n        /* \"#utility.yul\":18959:19378   */\n    tag_141:\n        /* \"#utility.yul\":19125:19129   */\n      0x00\n        /* \"#utility.yul\":19163:19165   */\n      0x20\n        /* \"#utility.yul\":19152:19161   */\n      dup3\n        /* \"#utility.yul\":19148:19166   */\n      add\n        /* \"#utility.yul\":19140:19166   */\n      swap1\n      pop\n        /* \"#utility.yul\":19212:19221   */\n      dup2\n        /* \"#utility.yul\":19206:19210   */\n      dup2\n        /* \"#utility.yul\":19202:19222   */\n      sub\n        /* \"#utility.yul\":19198:19199   */\n      0x00\n        /* \"#utility.yul\":19187:19196   */\n      dup4\n        /* \"#utility.yul\":19183:19200   */\n      add\n        /* \"#utility.yul\":19176:19223   */\n      mstore\n        /* \"#utility.yul\":19240:19371   */\n      tag_370\n        /* \"#utility.yul\":19366:19370   */\n      dup2\n        /* \"#utility.yul\":19240:19371   */\n      tag_201\n      jump\t// in\n    tag_370:\n        /* \"#utility.yul\":19232:19371   */\n      swap1\n      pop\n        /* \"#utility.yul\":18959:19378   */\n      swap2\n      swap1\n      pop\n      jump\t// out\n        /* \"#utility.yul\":19384:19607   */\n    tag_202:\n        /* \"#utility.yul\":19524:19558   */\n      0x4d6178696d756d206e756d626572206f6620726563697069656e747320726561\n        /* \"#utility.yul\":19520:19521   */\n      0x00\n        /* \"#utility.yul\":19512:19518   */\n      dup3\n        /* \"#utility.yul\":19508:19522   */\n      add\n        /* \"#utility.yul\":19501:19559   */\n      mstore\n        /* \"#utility.yul\":19593:19599   */\n      0x6368656400000000000000000000000000000000000000000000000000000000\n        /* \"#utility.yul\":19588:19590   */\n      0x20\n        /* \"#utility.yul\":19580:19586   */\n      dup3\n        /* \"#utility.yul\":19576:19591   */\n      add\n        /* \"#utility.yul\":19569:19600   */\n      mstore\n        /* \"#utility.yul\":19384:19607   */\n      pop\n      jump\t// out\n        /* \"#utility.yul\":19613:19979   */\n    tag_203:\n        /* \"#utility.yul\":19755:19758   */\n      0x00\n        /* \"#utility.yul\":19776:19843   */\n      tag_373\n        /* \"#utility.yul\":19840:19842   */\n      0x24\n        /* \"#utility.yul\":19835:19838   */\n      dup4\n        /* \"#utility.yul\":19776:19843   */\n      tag_178\n      jump\t// in\n    tag_373:\n        /* \"#utility.yul\":19769:19843   */\n      swap2\n      pop\n        /* \"#utility.yul\":19852:19945   */\n      tag_374\n        /* \"#utility.yul\":19941:19944   */\n      dup3\n        /* \"#utility.yul\":19852:19945   */\n      tag_202\n      jump\t// in\n    tag_374:\n        /* \"#utility.yul\":19970:19972   */\n      0x40\n        /* \"#utility.yul\":19965:19968   */\n      dup3\n        /* \"#utility.yul\":19961:19973   */\n      add\n        /* \"#utility.yul\":19954:19973   */\n      swap1\n      pop\n        /* \"#utility.yul\":19613:19979   */\n      swap2\n      swap1\n      pop\n      jump\t// out\n        /* \"#utility.yul\":19985:20404   */\n    tag_145:\n        /* \"#utility.yul\":20151:20155   */\n      0x00\n        /* \"#utility.yul\":20189:20191   */\n      0x20\n        /* \"#utility.yul\":20178:20187   */\n      dup3\n        /* \"#utility.yul\":20174:20192   */\n      add\n        /* \"#utility.yul\":20166:20192   */\n      swap1\n      pop\n        /* \"#utility.yul\":20238:20247   */\n      dup2\n        /* \"#utility.yul\":20232:20236   */\n      dup2\n        /* \"#utility.yul\":20228:20248   */\n      sub\n        /* \"#utility.yul\":20224:20225   */\n      0x00\n        /* \"#utility.yul\":20213:20222   */\n      dup4\n        /* \"#utility.yul\":20209:20226   */\n      add\n        /* \"#utility.yul\":20202:20249   */\n      mstore\n        /* \"#utility.yul\":20266:20397   */\n      tag_376\n        /* \"#utility.yul\":20392:20396   */\n      dup2\n        /* \"#utility.yul\":20266:20397   */\n      tag_203\n      jump\t// in\n    tag_376:\n        /* \"#utility.yul\":20258:20397   */\n      swap1\n      pop\n        /* \"#utility.yul\":19985:20404   */\n      swap2\n      swap1\n      pop\n      jump\t// out\n        /* \"#utility.yul\":20410:20585   */\n    tag_204:\n        /* \"#utility.yul\":20550:20577   */\n      0x496e76616c696420726563697069656e74206164647265737300000000000000\n        /* \"#utility.yul\":20546:20547   */\n      0x00\n        /* \"#utility.yul\":20538:20544   */\n      dup3\n        /* \"#utility.yul\":20534:20548   */\n      add\n        /* \"#utility.yul\":20527:20578   */\n      mstore\n        /* \"#utility.yul\":20410:20585   */\n      pop\n      jump\t// out\n        /* \"#utility.yul\":20591:20957   */\n    tag_205:\n        /* \"#utility.yul\":20733:20736   */\n      0x00\n        /* \"#utility.yul\":20754:20821   */\n      tag_379\n        /* \"#utility.yul\":20818:20820   */\n      0x19\n        /* \"#utility.yul\":20813:20816   */\n      dup4\n        /* \"#utility.yul\":20754:20821   */\n      tag_178\n      jump\t// in\n    tag_379:\n        /* \"#utility.yul\":20747:20821   */\n      swap2\n      pop\n        /* \"#utility.yul\":20830:20923   */\n      tag_380\n        /* \"#utility.yul\":20919:20922   */\n      dup3\n        /* \"#utility.yul\":20830:20923   */\n      tag_204\n      jump\t// in\n    tag_380:\n        /* \"#utility.yul\":20948:20950   */\n      0x20\n        /* \"#utility.yul\":20943:20946   */\n      dup3\n        /* \"#utility.yul\":20939:20951   */\n      add\n        /* \"#utility.yul\":20932:20951   */\n      swap1\n      pop\n        /* \"#utility.yul\":20591:20957   */\n      swap2\n      swap1\n      pop\n      jump\t// out\n        /* \"#utility.yul\":20963:21382   */\n    tag_148:\n        /* \"#utility.yul\":21129:21133   */\n      0x00\n        /* \"#utility.yul\":21167:21169   */\n      0x20\n        /* \"#utility.yul\":21156:21165   */\n      dup3\n        /* \"#utility.yul\":21152:21170   */\n      add\n        /* \"#utility.yul\":21144:21170   */\n      swap1\n      pop\n        /* \"#utility.yul\":21216:21225   */\n      dup2\n        /* \"#utility.yul\":21210:21214   */\n      dup2\n        /* \"#utility.yul\":21206:21226   */\n      sub\n        /* \"#utility.yul\":21202:21203   */\n      0x00\n        /* \"#utility.yul\":21191:21200   */\n      dup4\n        /* \"#utility.yul\":21187:21204   */\n      add\n        /* \"#utility.yul\":21180:21227   */\n      mstore\n        /* \"#utility.yul\":21244:21375   */\n      tag_382\n        /* \"#utility.yul\":21370:21374   */\n      dup2\n        /* \"#utility.yul\":21244:21375   */\n      tag_205\n      jump\t// in\n    tag_382:\n        /* \"#utility.yul\":21236:21375   */\n      swap1\n      pop\n        /* \"#utility.yul\":20963:21382   */\n      swap2\n      swap1\n      pop\n      jump\t// out\n        /* \"#utility.yul\":21388:21582   */\n    tag_151:\n        /* \"#utility.yul\":21428:21432   */\n      0x00\n        /* \"#utility.yul\":21448:21468   */\n      tag_384\n        /* \"#utility.yul\":21466:21467   */\n      dup3\n        /* \"#utility.yul\":21448:21468   */\n      tag_152\n      jump\t// in\n    tag_384:\n        /* \"#utility.yul\":21443:21468   */\n      swap2\n      pop\n        /* \"#utility.yul\":21482:21502   */\n      tag_385\n        /* \"#utility.yul\":21500:21501   */\n      dup4\n        /* \"#utility.yul\":21482:21502   */\n      tag_152\n      jump\t// in\n    tag_385:\n        /* \"#utility.yul\":21477:21502   */\n      swap3\n      pop\n        /* \"#utility.yul\":21526:21527   */\n      dup3\n        /* \"#utility.yul\":21523:21524   */\n      dup3\n        /* \"#utility.yul\":21519:21528   */\n      sub\n        /* \"#utility.yul\":21511:21528   */\n      swap1\n      pop\n        /* \"#utility.yul\":21550:21551   */\n      dup2\n        /* \"#utility.yul\":21544:21548   */\n      dup2\n        /* \"#utility.yul\":21541:21552   */\n      gt\n        /* \"#utility.yul\":21538:21575   */\n      iszero\n      tag_386\n      jumpi\n        /* \"#utility.yul\":21555:21573   */\n      tag_387\n      tag_181\n      jump\t// in\n    tag_387:\n        /* \"#utility.yul\":21538:21575   */\n    tag_386:\n        /* \"#utility.yul\":21388:21582   */\n      swap3\n      swap2\n      pop\n      pop\n      jump\t// out\n\n    auxdata: 0xa26469706673582212200c8354171baa963e40454ba62dc6ba7f633ca54678b0634dce10ff5dcb4fe69b64736f6c63430008120033\n}\n",
				"bytecode": {
					"linkReferences": {},
					"object": "6080604052606460035534801561001557600080fd5b50336000806101000a81548173ffffffffffffffffffffffffffffffffffffffff021916908373ffffffffffffffffffffffffffffffffffffffff160217905550611652806100656000396000f3fe6080604052600436106100865760003560e01c8063d1bc76a111610059578063d1bc76a114610128578063d78d610b14610166578063e4fc6b6d14610192578063f7982243146101a9578063ff50abdc146101d257610086565b806322e5aa3a1461008b57806327e235e3146100b65780638da5cb5b146100f3578063d0e30db01461011e575b600080fd5b34801561009757600080fd5b506100a06101fd565b6040516100ad9190610b14565b60405180910390f35b3480156100c257600080fd5b506100dd60048036038101906100d89190610b92565b610203565b6040516100ea9190610b14565b60405180910390f35b3480156100ff57600080fd5b5061010861021b565b6040516101159190610bce565b60405180910390f35b61012661023f565b005b34801561013457600080fd5b5061014f600480360381019061014a9190610c15565b610354565b60405161015d929190610c42565b60405180910390f35b34801561017257600080fd5b5061017b6103a8565b604051610189929190610de7565b60405180910390f35b34801561019e57600080fd5b506101a7610557565b005b3480156101b557600080fd5b506101d060048036038101906101cb9190610e1e565b6108a5565b005b3480156101de57600080fd5b506101e7610af5565b6040516101f49190610b14565b60405180910390f35b60035481565b60016020528060005260406000206000915090505481565b60008054906101000a900473ffffffffffffffffffffffffffffffffffffffff1681565b670de0b6b3a764000034101561028a576040517f08c379a000000000000000000000000000000000000000000000000000000000815260040161028190610ee1565b60405180910390fd5b68056bc75e2d63100000346002546102a29190610f30565b11156102e3576040517f08c379a00000000000000000000000000000000000000000000000000000000081526004016102da90610fb0565b60405180910390fd5b34600160003373ffffffffffffffffffffffffffffffffffffffff1673ffffffffffffffffffffffffffffffffffffffff16815260200190815260200160002060008282546103329190610f30565b92505081905550346002600082825461034b9190610f30565b92505081905550565b6004818154811061036457600080fd5b90600052602060002090600202016000915090508060000160009054906101000a900473ffffffffffffffffffffffffffffffffffffffff16908060010154905082565b606080600060048054905067ffffffffffffffff8111156103cc576103cb610fd0565b5b6040519080825280602002602001820160405280156103fa5781602001602082028036833780820191505090505b509050600060048054905067ffffffffffffffff81111561041e5761041d610fd0565b5b60405190808252806020026020018201604052801561044c5781602001602082028036833780820191505090505b50905060005b60048054905081101561054a576004818154811061047357610472610fff565b5b906000526020600020906002020160000160009054906101000a900473ffffffffffffffffffffffffffffffffffffffff168382815181106104b8576104b7610fff565b5b602002602001019073ffffffffffffffffffffffffffffffffffffffff16908173ffffffffffffffffffffffffffffffffffffffff16815250506004818154811061050657610505610fff565b5b90600052602060002090600202016001015482828151811061052b5761052a610fff565b5b60200260200101818152505080806105429061102e565b915050610452565b5081819350935050509091565b60008054906101000a900473ffffffffffffffffffffffffffffffffffffffff1673ffffffffffffffffffffffffffffffffffffffff163373ffffffffffffffffffffffffffffffffffffffff16146105e5576040517f08c379a00000000000000000000000000000000000000000000000000000000081526004016105dc906110e8565b60405180910390fd5b60646003541461062a576040517f08c379a000000000000000000000000000000000000000000000000000000000815260040161062190611154565b60405180910390fd5b60006002541161066f576040517f08c379a0000000000000000000000000000000000000000000000000000000008152600401610666906111e6565b60405180910390fd5b6002544710156106b4576040517f08c379a00000000000000000000000000000000000000000000000000000000081526004016106ab90611252565b60405180910390fd5b6000600480549050116106fc576040517f08c379a00000000000000000000000000000000000000000000000000000000081526004016106f3906112e4565b60405180910390fd5b600060035414610741576040517f08c379a000000000000000000000000000000000000000000000000000000000815260040161073890611154565b60405180910390fd5b60005b60048054905081101561089a57600060646004838154811061076957610768610fff565b5b9060005260206000209060020201600101546002546107889190611304565b6107929190611375565b90506000600483815481106107aa576107a9610fff565b5b906000526020600020906002020160000160009054906101000a900473ffffffffffffffffffffffffffffffffffffffff1673ffffffffffffffffffffffffffffffffffffffff16826040516107ff906113d7565b60006040518083038185875af1925050503d806000811461083c576040519150601f19603f3d011682016040523d82523d6000602084013e610841565b606091505b5050905080610885576040517f08c379a000000000000000000000000000000000000000000000000000000000815260040161087c90611438565b60405180910390fd5b505080806108929061102e565b915050610744565b506000600281905550565b60008054906101000a900473ffffffffffffffffffffffffffffffffffffffff1673ffffffffffffffffffffffffffffffffffffffff163373ffffffffffffffffffffffffffffffffffffffff1614610933576040517f08c379a000000000000000000000000000000000000000000000000000000000815260040161092a906110e8565b60405180910390fd5b8060008111610977576040517f08c379a000000000000000000000000000000000000000000000000000000000815260040161096e906114ca565b60405180910390fd5b6032600480549050106109bf576040517f08c379a00000000000000000000000000000000000000000000000000000000081526004016109b69061155c565b60405180910390fd5b600073ffffffffffffffffffffffffffffffffffffffff168373ffffffffffffffffffffffffffffffffffffffff1603610a2e576040517f08c379a0000000000000000000000000000000000000000000000000000000008152600401610a25906115c8565b60405180910390fd5b600460405180604001604052808573ffffffffffffffffffffffffffffffffffffffff16815260200184815250908060018154018082558091505060019003906000526020600020906002020160009091909190915060008201518160000160006101000a81548173ffffffffffffffffffffffffffffffffffffffff021916908373ffffffffffffffffffffffffffffffffffffffff1602179055506020820151816001015550508160036000828254610ae991906115e8565b92505081905550505050565b60025481565b6000819050919050565b610b0e81610afb565b82525050565b6000602082019050610b296000830184610b05565b92915050565b600080fd5b600073ffffffffffffffffffffffffffffffffffffffff82169050919050565b6000610b5f82610b34565b9050919050565b610b6f81610b54565b8114610b7a57600080fd5b50565b600081359050610b8c81610b66565b92915050565b600060208284031215610ba857610ba7610b2f565b5b6000610bb684828501610b7d565b91505092915050565b610bc881610b54565b82525050565b6000602082019050610be36000830184610bbf565b92915050565b610bf281610afb565b8114610bfd57600080fd5b50565b600081359050610c0f81610be9565b92915050565b600060208284031215610c2b57610c2a610b2f565b5b6000610c3984828501610c00565b91505092915050565b6000604082019050610c576000830185610bbf565b610c646020830184610b05565b9392505050565b600081519050919050565b600082825260208201905092915050565b6000819050602082019050919050565b610ca081610b54565b82525050565b6000610cb28383610c97565b60208301905092915050565b6000602082019050919050565b6000610cd682610c6b565b610ce08185610c76565b9350610ceb83610c87565b8060005b83811015610d1c578151610d038882610ca6565b9750610d0e83610cbe565b925050600181019050610cef565b5085935050505092915050565b600081519050919050565b600082825260208201905092915050565b6000819050602082019050919050565b610d5e81610afb565b82525050565b6000610d708383610d55565b60208301905092915050565b6000602082019050919050565b6000610d9482610d29565b610d9e8185610d34565b9350610da983610d45565b8060005b83811015610dda578151610dc18882610d64565b9750610dcc83610d7c565b925050600181019050610dad565b5085935050505092915050565b60006040820190508181036000830152610e018185610ccb565b90508181036020830152610e158184610d89565b90509392505050565b60008060408385031215610e3557610e34610b2f565b5b6000610e4385828601610b7d565b9250506020610e5485828601610c00565b9150509250929050565b600082825260208201905092915050565b7f4d696e696d756d206465706f73697420616d6f756e742069732031204574686560008201527f7200000000000000000000000000000000000000000000000000000000000000602082015250565b6000610ecb602183610e5e565b9150610ed682610e6f565b604082019050919050565b60006020820190508181036000830152610efa81610ebe565b9050919050565b7f4e487b7100000000000000000000000000000000000000000000000000000000600052601160045260246000fd5b6000610f3b82610afb565b9150610f4683610afb565b9250828201905080821115610f5e57610f5d610f01565b5b92915050565b7f4d6178696d756d20636f6e74726163742062616c616e63652072656163686564600082015250565b6000610f9a602083610e5e565b9150610fa582610f64565b602082019050919050565b60006020820190508181036000830152610fc981610f8d565b9050919050565b7f4e487b7100000000000000000000000000000000000000000000000000000000600052604160045260246000fd5b7f4e487b7100000000000000000000000000000000000000000000000000000000600052603260045260246000fd5b600061103982610afb565b91507fffffffffffffffffffffffffffffffffffffffffffffffffffffffffffffffff820361106b5761106a610f01565b5b600182019050919050565b7f4f6e6c792074686520636f6e7472616374206f776e65722063616e207065726660008201527f6f726d207468697320616374696f6e0000000000000000000000000000000000602082015250565b60006110d2602f83610e5e565b91506110dd82611076565b604082019050919050565b60006020820190508181036000830152611101816110c5565b9050919050565b7f546f74616c2070726f706f7274696f6e206d7573742062652031303000000000600082015250565b600061113e601c83610e5e565b915061114982611108565b602082019050919050565b6000602082019050818103600083015261116d81611131565b9050919050565b7f4e6f2065746865727320617661696c61626c6520666f7220646973747269627560008201527f74696f6e00000000000000000000000000000000000000000000000000000000602082015250565b60006111d0602483610e5e565b91506111db82611174565b604082019050919050565b600060208201905081810360008301526111ff816111c3565b9050919050565b7f496e73756666696369656e7420636f6e74726163742062616c616e6365000000600082015250565b600061123c601d83610e5e565b915061124782611206565b602082019050919050565b6000602082019050818103600083015261126b8161122f565b9050919050565b7f4e6f20726563697069656e747320617661696c61626c6520666f72206469737460008201527f7269627574696f6e000000000000000000000000000000000000000000000000602082015250565b60006112ce602883610e5e565b91506112d982611272565b604082019050919050565b600060208201905081810360008301526112fd816112c1565b9050919050565b600061130f82610afb565b915061131a83610afb565b925082820261132881610afb565b9150828204841483151761133f5761133e610f01565b5b5092915050565b7f4e487b7100000000000000000000000000000000000000000000000000000000600052601260045260246000fd5b600061138082610afb565b915061138b83610afb565b92508261139b5761139a611346565b5b828204905092915050565b600081905092915050565b50565b60006113c16000836113a6565b91506113cc826113b1565b600082019050919050565b60006113e2826113b4565b9150819050919050565b7f4661696c656420746f2073656e64204574686572000000000000000000000000600082015250565b6000611422601483610e5e565b915061142d826113ec565b602082019050919050565b6000602082019050818103600083015261145181611415565b9050919050565b7f50726f706f7274696f6e206d7573742062652067726561746572207468616e2060008201527f7a65726f00000000000000000000000000000000000000000000000000000000602082015250565b60006114b4602483610e5e565b91506114bf82611458565b604082019050919050565b600060208201905081810360008301526114e3816114a7565b9050919050565b7f4d6178696d756d206e756d626572206f6620726563697069656e74732072656160008201527f6368656400000000000000000000000000000000000000000000000000000000602082015250565b6000611546602483610e5e565b9150611551826114ea565b604082019050919050565b6000602082019050818103600083015261157581611539565b9050919050565b7f496e76616c696420726563697069656e74206164647265737300000000000000600082015250565b60006115b2601983610e5e565b91506115bd8261157c565b602082019050919050565b600060208201905081810360008301526115e1816115a5565b9050919050565b60006115f382610afb565b91506115fe83610afb565b925082820390508181111561161657611615610f01565b5b9291505056fea26469706673582212200c8354171baa963e40454ba62dc6ba7f633ca54678b0634dce10ff5dcb4fe69b64736f6c63430008120033",
					"opcodes": "PUSH1 0x80 PUSH1 0x40 MSTORE PUSH1 0x64 PUSH1 0x3 SSTORE CALLVALUE DUP1 ISZERO PUSH2 0x15 JUMPI PUSH1 0x0 DUP1 REVERT JUMPDEST POP CALLER PUSH1 0x0 DUP1 PUSH2 0x100 EXP DUP2 SLOAD DUP2 PUSH20 0xFFFFFFFFFFFFFFFFFFFFFFFFFFFFFFFFFFFFFFFF MUL NOT AND SWAP1 DUP4 PUSH20 0xFFFFFFFFFFFFFFFFFFFFFFFFFFFFFFFFFFFFFFFF AND MUL OR SWAP1 SSTORE POP PUSH2 0x1652 DUP1 PUSH2 0x65 PUSH1 0x0 CODECOPY PUSH1 0x0 RETURN INVALID PUSH1 0x80 PUSH1 0x40 MSTORE PUSH1 0x4 CALLDATASIZE LT PUSH2 0x86 JUMPI PUSH1 0x0 CALLDATALOAD PUSH1 0xE0 SHR DUP1 PUSH4 0xD1BC76A1 GT PUSH2 0x59 JUMPI DUP1 PUSH4 0xD1BC76A1 EQ PUSH2 0x128 JUMPI DUP1 PUSH4 0xD78D610B EQ PUSH2 0x166 JUMPI DUP1 PUSH4 0xE4FC6B6D EQ PUSH2 0x192 JUMPI DUP1 PUSH4 0xF7982243 EQ PUSH2 0x1A9 JUMPI DUP1 PUSH4 0xFF50ABDC EQ PUSH2 0x1D2 JUMPI PUSH2 0x86 JUMP JUMPDEST DUP1 PUSH4 0x22E5AA3A EQ PUSH2 0x8B JUMPI DUP1 PUSH4 0x27E235E3 EQ PUSH2 0xB6 JUMPI DUP1 PUSH4 0x8DA5CB5B EQ PUSH2 0xF3 JUMPI DUP1 PUSH4 0xD0E30DB0 EQ PUSH2 0x11E JUMPI JUMPDEST PUSH1 0x0 DUP1 REVERT JUMPDEST CALLVALUE DUP1 ISZERO PUSH2 0x97 JUMPI PUSH1 0x0 DUP1 REVERT JUMPDEST POP PUSH2 0xA0 PUSH2 0x1FD JUMP JUMPDEST PUSH1 0x40 MLOAD PUSH2 0xAD SWAP2 SWAP1 PUSH2 0xB14 JUMP JUMPDEST PUSH1 0x40 MLOAD DUP1 SWAP2 SUB SWAP1 RETURN JUMPDEST CALLVALUE DUP1 ISZERO PUSH2 0xC2 JUMPI PUSH1 0x0 DUP1 REVERT JUMPDEST POP PUSH2 0xDD PUSH1 0x4 DUP1 CALLDATASIZE SUB DUP2 ADD SWAP1 PUSH2 0xD8 SWAP2 SWAP1 PUSH2 0xB92 JUMP JUMPDEST PUSH2 0x203 JUMP JUMPDEST PUSH1 0x40 MLOAD PUSH2 0xEA SWAP2 SWAP1 PUSH2 0xB14 JUMP JUMPDEST PUSH1 0x40 MLOAD DUP1 SWAP2 SUB SWAP1 RETURN JUMPDEST CALLVALUE DUP1 ISZERO PUSH2 0xFF JUMPI PUSH1 0x0 DUP1 REVERT JUMPDEST POP PUSH2 0x108 PUSH2 0x21B JUMP JUMPDEST PUSH1 0x40 MLOAD PUSH2 0x115 SWAP2 SWAP1 PUSH2 0xBCE JUMP JUMPDEST PUSH1 0x40 MLOAD DUP1 SWAP2 SUB SWAP1 RETURN JUMPDEST PUSH2 0x126 PUSH2 0x23F JUMP JUMPDEST STOP JUMPDEST CALLVALUE DUP1 ISZERO PUSH2 0x134 JUMPI PUSH1 0x0 DUP1 REVERT JUMPDEST POP PUSH2 0x14F PUSH1 0x4 DUP1 CALLDATASIZE SUB DUP2 ADD SWAP1 PUSH2 0x14A SWAP2 SWAP1 PUSH2 0xC15 JUMP JUMPDEST PUSH2 0x354 JUMP JUMPDEST PUSH1 0x40 MLOAD PUSH2 0x15D SWAP3 SWAP2 SWAP1 PUSH2 0xC42 JUMP JUMPDEST PUSH1 0x40 MLOAD DUP1 SWAP2 SUB SWAP1 RETURN JUMPDEST CALLVALUE DUP1 ISZERO PUSH2 0x172 JUMPI PUSH1 0x0 DUP1 REVERT JUMPDEST POP PUSH2 0x17B PUSH2 0x3A8 JUMP JUMPDEST PUSH1 0x40 MLOAD PUSH2 0x189 SWAP3 SWAP2 SWAP1 PUSH2 0xDE7 JUMP JUMPDEST PUSH1 0x40 MLOAD DUP1 SWAP2 SUB SWAP1 RETURN JUMPDEST CALLVALUE DUP1 ISZERO PUSH2 0x19E JUMPI PUSH1 0x0 DUP1 REVERT JUMPDEST POP PUSH2 0x1A7 PUSH2 0x557 JUMP JUMPDEST STOP JUMPDEST CALLVALUE DUP1 ISZERO PUSH2 0x1B5 JUMPI PUSH1 0x0 DUP1 REVERT JUMPDEST POP PUSH2 0x1D0 PUSH1 0x4 DUP1 CALLDATASIZE SUB DUP2 ADD SWAP1 PUSH2 0x1CB SWAP2 SWAP1 PUSH2 0xE1E JUMP JUMPDEST PUSH2 0x8A5 JUMP JUMPDEST STOP JUMPDEST CALLVALUE DUP1 ISZERO PUSH2 0x1DE JUMPI PUSH1 0x0 DUP1 REVERT JUMPDEST POP PUSH2 0x1E7 PUSH2 0xAF5 JUMP JUMPDEST PUSH1 0x40 MLOAD PUSH2 0x1F4 SWAP2 SWAP1 PUSH2 0xB14 JUMP JUMPDEST PUSH1 0x40 MLOAD DUP1 SWAP2 SUB SWAP1 RETURN JUMPDEST PUSH1 0x3 SLOAD DUP2 JUMP JUMPDEST PUSH1 0x1 PUSH1 0x20 MSTORE DUP1 PUSH1 0x0 MSTORE PUSH1 0x40 PUSH1 0x0 KECCAK256 PUSH1 0x0 SWAP2 POP SWAP1 POP SLOAD DUP2 JUMP JUMPDEST PUSH1 0x0 DUP1 SLOAD SWAP1 PUSH2 0x100 EXP SWAP1 DIV PUSH20 0xFFFFFFFFFFFFFFFFFFFFFFFFFFFFFFFFFFFFFFFF AND DUP2 JUMP JUMPDEST PUSH8 0xDE0B6B3A7640000 CALLVALUE LT ISZERO PUSH2 0x28A JUMPI PUSH1 0x40 MLOAD PUSH32 0x8C379A000000000000000000000000000000000000000000000000000000000 DUP2 MSTORE PUSH1 0x4 ADD PUSH2 0x281 SWAP1 PUSH2 0xEE1 JUMP JUMPDEST PUSH1 0x40 MLOAD DUP1 SWAP2 SUB SWAP1 REVERT JUMPDEST PUSH9 0x56BC75E2D63100000 CALLVALUE PUSH1 0x2 SLOAD PUSH2 0x2A2 SWAP2 SWAP1 PUSH2 0xF30 JUMP JUMPDEST GT ISZERO PUSH2 0x2E3 JUMPI PUSH1 0x40 MLOAD PUSH32 0x8C379A000000000000000000000000000000000000000000000000000000000 DUP2 MSTORE PUSH1 0x4 ADD PUSH2 0x2DA SWAP1 PUSH2 0xFB0 JUMP JUMPDEST PUSH1 0x40 MLOAD DUP1 SWAP2 SUB SWAP1 REVERT JUMPDEST CALLVALUE PUSH1 0x1 PUSH1 0x0 CALLER PUSH20 0xFFFFFFFFFFFFFFFFFFFFFFFFFFFFFFFFFFFFFFFF AND PUSH20 0xFFFFFFFFFFFFFFFFFFFFFFFFFFFFFFFFFFFFFFFF AND DUP2 MSTORE PUSH1 0x20 ADD SWAP1 DUP2 MSTORE PUSH1 0x20 ADD PUSH1 0x0 KECCAK256 PUSH1 0x0 DUP3 DUP3 SLOAD PUSH2 0x332 SWAP2 SWAP1 PUSH2 0xF30 JUMP JUMPDEST SWAP3 POP POP DUP2 SWAP1 SSTORE POP CALLVALUE PUSH1 0x2 PUSH1 0x0 DUP3 DUP3 SLOAD PUSH2 0x34B SWAP2 SWAP1 PUSH2 0xF30 JUMP JUMPDEST SWAP3 POP POP DUP2 SWAP1 SSTORE POP JUMP JUMPDEST PUSH1 0x4 DUP2 DUP2 SLOAD DUP2 LT PUSH2 0x364 JUMPI PUSH1 0x0 DUP1 REVERT JUMPDEST SWAP1 PUSH1 0x0 MSTORE PUSH1 0x20 PUSH1 0x0 KECCAK256 SWAP1 PUSH1 0x2 MUL ADD PUSH1 0x0 SWAP2 POP SWAP1 POP DUP1 PUSH1 0x0 ADD PUSH1 0x0 SWAP1 SLOAD SWAP1 PUSH2 0x100 EXP SWAP1 DIV PUSH20 0xFFFFFFFFFFFFFFFFFFFFFFFFFFFFFFFFFFFFFFFF AND SWAP1 DUP1 PUSH1 0x1 ADD SLOAD SWAP1 POP DUP3 JUMP JUMPDEST PUSH1 0x60 DUP1 PUSH1 0x0 PUSH1 0x4 DUP1 SLOAD SWAP1 POP PUSH8 0xFFFFFFFFFFFFFFFF DUP2 GT ISZERO PUSH2 0x3CC JUMPI PUSH2 0x3CB PUSH2 0xFD0 JUMP JUMPDEST JUMPDEST PUSH1 0x40 MLOAD SWAP1 DUP1 DUP3 MSTORE DUP1 PUSH1 0x20 MUL PUSH1 0x20 ADD DUP3 ADD PUSH1 0x40 MSTORE DUP1 ISZERO PUSH2 0x3FA JUMPI DUP2 PUSH1 0x20 ADD PUSH1 0x20 DUP3 MUL DUP1 CALLDATASIZE DUP4 CALLDATACOPY DUP1 DUP3 ADD SWAP2 POP POP SWAP1 POP JUMPDEST POP SWAP1 POP PUSH1 0x0 PUSH1 0x4 DUP1 SLOAD SWAP1 POP PUSH8 0xFFFFFFFFFFFFFFFF DUP2 GT ISZERO PUSH2 0x41E JUMPI PUSH2 0x41D PUSH2 0xFD0 JUMP JUMPDEST JUMPDEST PUSH1 0x40 MLOAD SWAP1 DUP1 DUP3 MSTORE DUP1 PUSH1 0x20 MUL PUSH1 0x20 ADD DUP3 ADD PUSH1 0x40 MSTORE DUP1 ISZERO PUSH2 0x44C JUMPI DUP2 PUSH1 0x20 ADD PUSH1 0x20 DUP3 MUL DUP1 CALLDATASIZE DUP4 CALLDATACOPY DUP1 DUP3 ADD SWAP2 POP POP SWAP1 POP JUMPDEST POP SWAP1 POP PUSH1 0x0 JUMPDEST PUSH1 0x4 DUP1 SLOAD SWAP1 POP DUP2 LT ISZERO PUSH2 0x54A JUMPI PUSH1 0x4 DUP2 DUP2 SLOAD DUP2 LT PUSH2 0x473 JUMPI PUSH2 0x472 PUSH2 0xFFF JUMP JUMPDEST JUMPDEST SWAP1 PUSH1 0x0 MSTORE PUSH1 0x20 PUSH1 0x0 KECCAK256 SWAP1 PUSH1 0x2 MUL ADD PUSH1 0x0 ADD PUSH1 0x0 SWAP1 SLOAD SWAP1 PUSH2 0x100 EXP SWAP1 DIV PUSH20 0xFFFFFFFFFFFFFFFFFFFFFFFFFFFFFFFFFFFFFFFF AND DUP4 DUP3 DUP2 MLOAD DUP2 LT PUSH2 0x4B8 JUMPI PUSH2 0x4B7 PUSH2 0xFFF JUMP JUMPDEST JUMPDEST PUSH1 0x20 MUL PUSH1 0x20 ADD ADD SWAP1 PUSH20 0xFFFFFFFFFFFFFFFFFFFFFFFFFFFFFFFFFFFFFFFF AND SWAP1 DUP2 PUSH20 0xFFFFFFFFFFFFFFFFFFFFFFFFFFFFFFFFFFFFFFFF AND DUP2 MSTORE POP POP PUSH1 0x4 DUP2 DUP2 SLOAD DUP2 LT PUSH2 0x506 JUMPI PUSH2 0x505 PUSH2 0xFFF JUMP JUMPDEST JUMPDEST SWAP1 PUSH1 0x0 MSTORE PUSH1 0x20 PUSH1 0x0 KECCAK256 SWAP1 PUSH1 0x2 MUL ADD PUSH1 0x1 ADD SLOAD DUP3 DUP3 DUP2 MLOAD DUP2 LT PUSH2 0x52B JUMPI PUSH2 0x52A PUSH2 0xFFF JUMP JUMPDEST JUMPDEST PUSH1 0x20 MUL PUSH1 0x20 ADD ADD DUP2 DUP2 MSTORE POP POP DUP1 DUP1 PUSH2 0x542 SWAP1 PUSH2 0x102E JUMP JUMPDEST SWAP2 POP POP PUSH2 0x452 JUMP JUMPDEST POP DUP2 DUP2 SWAP4 POP SWAP4 POP POP POP SWAP1 SWAP2 JUMP JUMPDEST PUSH1 0x0 DUP1 SLOAD SWAP1 PUSH2 0x100 EXP SWAP1 DIV PUSH20 0xFFFFFFFFFFFFFFFFFFFFFFFFFFFFFFFFFFFFFFFF AND PUSH20 0xFFFFFFFFFFFFFFFFFFFFFFFFFFFFFFFFFFFFFFFF AND CALLER PUSH20 0xFFFFFFFFFFFFFFFFFFFFFFFFFFFFFFFFFFFFFFFF AND EQ PUSH2 0x5E5 JUMPI PUSH1 0x40 MLOAD PUSH32 0x8C379A000000000000000000000000000000000000000000000000000000000 DUP2 MSTORE PUSH1 0x4 ADD PUSH2 0x5DC SWAP1 PUSH2 0x10E8 JUMP JUMPDEST PUSH1 0x40 MLOAD DUP1 SWAP2 SUB SWAP1 REVERT JUMPDEST PUSH1 0x64 PUSH1 0x3 SLOAD EQ PUSH2 0x62A JUMPI PUSH1 0x40 MLOAD PUSH32 0x8C379A000000000000000000000000000000000000000000000000000000000 DUP2 MSTORE PUSH1 0x4 ADD PUSH2 0x621 SWAP1 PUSH2 0x1154 JUMP JUMPDEST PUSH1 0x40 MLOAD DUP1 SWAP2 SUB SWAP1 REVERT JUMPDEST PUSH1 0x0 PUSH1 0x2 SLOAD GT PUSH2 0x66F JUMPI PUSH1 0x40 MLOAD PUSH32 0x8C379A000000000000000000000000000000000000000000000000000000000 DUP2 MSTORE PUSH1 0x4 ADD PUSH2 0x666 SWAP1 PUSH2 0x11E6 JUMP JUMPDEST PUSH1 0x40 MLOAD DUP1 SWAP2 SUB SWAP1 REVERT JUMPDEST PUSH1 0x2 SLOAD SELFBALANCE LT ISZERO PUSH2 0x6B4 JUMPI PUSH1 0x40 MLOAD PUSH32 0x8C379A000000000000000000000000000000000000000000000000000000000 DUP2 MSTORE PUSH1 0x4 ADD PUSH2 0x6AB SWAP1 PUSH2 0x1252 JUMP JUMPDEST PUSH1 0x40 MLOAD DUP1 SWAP2 SUB SWAP1 REVERT JUMPDEST PUSH1 0x0 PUSH1 0x4 DUP1 SLOAD SWAP1 POP GT PUSH2 0x6FC JUMPI PUSH1 0x40 MLOAD PUSH32 0x8C379A000000000000000000000000000000000000000000000000000000000 DUP2 MSTORE PUSH1 0x4 ADD PUSH2 0x6F3 SWAP1 PUSH2 0x12E4 JUMP JUMPDEST PUSH1 0x40 MLOAD DUP1 SWAP2 SUB SWAP1 REVERT JUMPDEST PUSH1 0x0 PUSH1 0x3 SLOAD EQ PUSH2 0x741 JUMPI PUSH1 0x40 MLOAD PUSH32 0x8C379A000000000000000000000000000000000000000000000000000000000 DUP2 MSTORE PUSH1 0x4 ADD PUSH2 0x738 SWAP1 PUSH2 0x1154 JUMP JUMPDEST PUSH1 0x40 MLOAD DUP1 SWAP2 SUB SWAP1 REVERT JUMPDEST PUSH1 0x0 JUMPDEST PUSH1 0x4 DUP1 SLOAD SWAP1 POP DUP2 LT ISZERO PUSH2 0x89A JUMPI PUSH1 0x0 PUSH1 0x64 PUSH1 0x4 DUP4 DUP2 SLOAD DUP2 LT PUSH2 0x769 JUMPI PUSH2 0x768 PUSH2 0xFFF JUMP JUMPDEST JUMPDEST SWAP1 PUSH1 0x0 MSTORE PUSH1 0x20 PUSH1 0x0 KECCAK256 SWAP1 PUSH1 0x2 MUL ADD PUSH1 0x1 ADD SLOAD PUSH1 0x2 SLOAD PUSH2 0x788 SWAP2 SWAP1 PUSH2 0x1304 JUMP JUMPDEST PUSH2 0x792 SWAP2 SWAP1 PUSH2 0x1375 JUMP JUMPDEST SWAP1 POP PUSH1 0x0 PUSH1 0x4 DUP4 DUP2 SLOAD DUP2 LT PUSH2 0x7AA JUMPI PUSH2 0x7A9 PUSH2 0xFFF JUMP JUMPDEST JUMPDEST SWAP1 PUSH1 0x0 MSTORE PUSH1 0x20 PUSH1 0x0 KECCAK256 SWAP1 PUSH1 0x2 MUL ADD PUSH1 0x0 ADD PUSH1 0x0 SWAP1 SLOAD SWAP1 PUSH2 0x100 EXP SWAP1 DIV PUSH20 0xFFFFFFFFFFFFFFFFFFFFFFFFFFFFFFFFFFFFFFFF AND PUSH20 0xFFFFFFFFFFFFFFFFFFFFFFFFFFFFFFFFFFFFFFFF AND DUP3 PUSH1 0x40 MLOAD PUSH2 0x7FF SWAP1 PUSH2 0x13D7 JUMP JUMPDEST PUSH1 0x0 PUSH1 0x40 MLOAD DUP1 DUP4 SUB DUP2 DUP6 DUP8 GAS CALL SWAP3 POP POP POP RETURNDATASIZE DUP1 PUSH1 0x0 DUP2 EQ PUSH2 0x83C JUMPI PUSH1 0x40 MLOAD SWAP2 POP PUSH1 0x1F NOT PUSH1 0x3F RETURNDATASIZE ADD AND DUP3 ADD PUSH1 0x40 MSTORE RETURNDATASIZE DUP3 MSTORE RETURNDATASIZE PUSH1 0x0 PUSH1 0x20 DUP5 ADD RETURNDATACOPY PUSH2 0x841 JUMP JUMPDEST PUSH1 0x60 SWAP2 POP JUMPDEST POP POP SWAP1 POP DUP1 PUSH2 0x885 JUMPI PUSH1 0x40 MLOAD PUSH32 0x8C379A000000000000000000000000000000000000000000000000000000000 DUP2 MSTORE PUSH1 0x4 ADD PUSH2 0x87C SWAP1 PUSH2 0x1438 JUMP JUMPDEST PUSH1 0x40 MLOAD DUP1 SWAP2 SUB SWAP1 REVERT JUMPDEST POP POP DUP1 DUP1 PUSH2 0x892 SWAP1 PUSH2 0x102E JUMP JUMPDEST SWAP2 POP POP PUSH2 0x744 JUMP JUMPDEST POP PUSH1 0x0 PUSH1 0x2 DUP2 SWAP1 SSTORE POP JUMP JUMPDEST PUSH1 0x0 DUP1 SLOAD SWAP1 PUSH2 0x100 EXP SWAP1 DIV PUSH20 0xFFFFFFFFFFFFFFFFFFFFFFFFFFFFFFFFFFFFFFFF AND PUSH20 0xFFFFFFFFFFFFFFFFFFFFFFFFFFFFFFFFFFFFFFFF AND CALLER PUSH20 0xFFFFFFFFFFFFFFFFFFFFFFFFFFFFFFFFFFFFFFFF AND EQ PUSH2 0x933 JUMPI PUSH1 0x40 MLOAD PUSH32 0x8C379A000000000000000000000000000000000000000000000000000000000 DUP2 MSTORE PUSH1 0x4 ADD PUSH2 0x92A SWAP1 PUSH2 0x10E8 JUMP JUMPDEST PUSH1 0x40 MLOAD DUP1 SWAP2 SUB SWAP1 REVERT JUMPDEST DUP1 PUSH1 0x0 DUP2 GT PUSH2 0x977 JUMPI PUSH1 0x40 MLOAD PUSH32 0x8C379A000000000000000000000000000000000000000000000000000000000 DUP2 MSTORE PUSH1 0x4 ADD PUSH2 0x96E SWAP1 PUSH2 0x14CA JUMP JUMPDEST PUSH1 0x40 MLOAD DUP1 SWAP2 SUB SWAP1 REVERT JUMPDEST PUSH1 0x32 PUSH1 0x4 DUP1 SLOAD SWAP1 POP LT PUSH2 0x9BF JUMPI PUSH1 0x40 MLOAD PUSH32 0x8C379A000000000000000000000000000000000000000000000000000000000 DUP2 MSTORE PUSH1 0x4 ADD PUSH2 0x9B6 SWAP1 PUSH2 0x155C JUMP JUMPDEST PUSH1 0x40 MLOAD DUP1 SWAP2 SUB SWAP1 REVERT JUMPDEST PUSH1 0x0 PUSH20 0xFFFFFFFFFFFFFFFFFFFFFFFFFFFFFFFFFFFFFFFF AND DUP4 PUSH20 0xFFFFFFFFFFFFFFFFFFFFFFFFFFFFFFFFFFFFFFFF AND SUB PUSH2 0xA2E JUMPI PUSH1 0x40 MLOAD PUSH32 0x8C379A000000000000000000000000000000000000000000000000000000000 DUP2 MSTORE PUSH1 0x4 ADD PUSH2 0xA25 SWAP1 PUSH2 0x15C8 JUMP JUMPDEST PUSH1 0x40 MLOAD DUP1 SWAP2 SUB SWAP1 REVERT JUMPDEST PUSH1 0x4 PUSH1 0x40 MLOAD DUP1 PUSH1 0x40 ADD PUSH1 0x40 MSTORE DUP1 DUP6 PUSH20 0xFFFFFFFFFFFFFFFFFFFFFFFFFFFFFFFFFFFFFFFF AND DUP2 MSTORE PUSH1 0x20 ADD DUP5 DUP2 MSTORE POP SWAP1 DUP1 PUSH1 0x1 DUP2 SLOAD ADD DUP1 DUP3 SSTORE DUP1 SWAP2 POP POP PUSH1 0x1 SWAP1 SUB SWAP1 PUSH1 0x0 MSTORE PUSH1 0x20 PUSH1 0x0 KECCAK256 SWAP1 PUSH1 0x2 MUL ADD PUSH1 0x0 SWAP1 SWAP2 SWAP1 SWAP2 SWAP1 SWAP2 POP PUSH1 0x0 DUP3 ADD MLOAD DUP2 PUSH1 0x0 ADD PUSH1 0x0 PUSH2 0x100 EXP DUP2 SLOAD DUP2 PUSH20 0xFFFFFFFFFFFFFFFFFFFFFFFFFFFFFFFFFFFFFFFF MUL NOT AND SWAP1 DUP4 PUSH20 0xFFFFFFFFFFFFFFFFFFFFFFFFFFFFFFFFFFFFFFFF AND MUL OR SWAP1 SSTORE POP PUSH1 0x20 DUP3 ADD MLOAD DUP2 PUSH1 0x1 ADD SSTORE POP POP DUP2 PUSH1 0x3 PUSH1 0x0 DUP3 DUP3 SLOAD PUSH2 0xAE9 SWAP2 SWAP1 PUSH2 0x15E8 JUMP JUMPDEST SWAP3 POP POP DUP2 SWAP1 SSTORE POP POP POP POP JUMP JUMPDEST PUSH1 0x2 SLOAD DUP2 JUMP JUMPDEST PUSH1 0x0 DUP2 SWAP1 POP SWAP2 SWAP1 POP JUMP JUMPDEST PUSH2 0xB0E DUP2 PUSH2 0xAFB JUMP JUMPDEST DUP3 MSTORE POP POP JUMP JUMPDEST PUSH1 0x0 PUSH1 0x20 DUP3 ADD SWAP1 POP PUSH2 0xB29 PUSH1 0x0 DUP4 ADD DUP5 PUSH2 0xB05 JUMP JUMPDEST SWAP3 SWAP2 POP POP JUMP JUMPDEST PUSH1 0x0 DUP1 REVERT JUMPDEST PUSH1 0x0 PUSH20 0xFFFFFFFFFFFFFFFFFFFFFFFFFFFFFFFFFFFFFFFF DUP3 AND SWAP1 POP SWAP2 SWAP1 POP JUMP JUMPDEST PUSH1 0x0 PUSH2 0xB5F DUP3 PUSH2 0xB34 JUMP JUMPDEST SWAP1 POP SWAP2 SWAP1 POP JUMP JUMPDEST PUSH2 0xB6F DUP2 PUSH2 0xB54 JUMP JUMPDEST DUP2 EQ PUSH2 0xB7A JUMPI PUSH1 0x0 DUP1 REVERT JUMPDEST POP JUMP JUMPDEST PUSH1 0x0 DUP2 CALLDATALOAD SWAP1 POP PUSH2 0xB8C DUP2 PUSH2 0xB66 JUMP JUMPDEST SWAP3 SWAP2 POP POP JUMP JUMPDEST PUSH1 0x0 PUSH1 0x20 DUP3 DUP5 SUB SLT ISZERO PUSH2 0xBA8 JUMPI PUSH2 0xBA7 PUSH2 0xB2F JUMP JUMPDEST JUMPDEST PUSH1 0x0 PUSH2 0xBB6 DUP5 DUP3 DUP6 ADD PUSH2 0xB7D JUMP JUMPDEST SWAP2 POP POP SWAP3 SWAP2 POP POP JUMP JUMPDEST PUSH2 0xBC8 DUP2 PUSH2 0xB54 JUMP JUMPDEST DUP3 MSTORE POP POP JUMP JUMPDEST PUSH1 0x0 PUSH1 0x20 DUP3 ADD SWAP1 POP PUSH2 0xBE3 PUSH1 0x0 DUP4 ADD DUP5 PUSH2 0xBBF JUMP JUMPDEST SWAP3 SWAP2 POP POP JUMP JUMPDEST PUSH2 0xBF2 DUP2 PUSH2 0xAFB JUMP JUMPDEST DUP2 EQ PUSH2 0xBFD JUMPI PUSH1 0x0 DUP1 REVERT JUMPDEST POP JUMP JUMPDEST PUSH1 0x0 DUP2 CALLDATALOAD SWAP1 POP PUSH2 0xC0F DUP2 PUSH2 0xBE9 JUMP JUMPDEST SWAP3 SWAP2 POP POP JUMP JUMPDEST PUSH1 0x0 PUSH1 0x20 DUP3 DUP5 SUB SLT ISZERO PUSH2 0xC2B JUMPI PUSH2 0xC2A PUSH2 0xB2F JUMP JUMPDEST JUMPDEST PUSH1 0x0 PUSH2 0xC39 DUP5 DUP3 DUP6 ADD PUSH2 0xC00 JUMP JUMPDEST SWAP2 POP POP SWAP3 SWAP2 POP POP JUMP JUMPDEST PUSH1 0x0 PUSH1 0x40 DUP3 ADD SWAP1 POP PUSH2 0xC57 PUSH1 0x0 DUP4 ADD DUP6 PUSH2 0xBBF JUMP JUMPDEST PUSH2 0xC64 PUSH1 0x20 DUP4 ADD DUP5 PUSH2 0xB05 JUMP JUMPDEST SWAP4 SWAP3 POP POP POP JUMP JUMPDEST PUSH1 0x0 DUP2 MLOAD SWAP1 POP SWAP2 SWAP1 POP JUMP JUMPDEST PUSH1 0x0 DUP3 DUP3 MSTORE PUSH1 0x20 DUP3 ADD SWAP1 POP SWAP3 SWAP2 POP POP JUMP JUMPDEST PUSH1 0x0 DUP2 SWAP1 POP PUSH1 0x20 DUP3 ADD SWAP1 POP SWAP2 SWAP1 POP JUMP JUMPDEST PUSH2 0xCA0 DUP2 PUSH2 0xB54 JUMP JUMPDEST DUP3 MSTORE POP POP JUMP JUMPDEST PUSH1 0x0 PUSH2 0xCB2 DUP4 DUP4 PUSH2 0xC97 JUMP JUMPDEST PUSH1 0x20 DUP4 ADD SWAP1 POP SWAP3 SWAP2 POP POP JUMP JUMPDEST PUSH1 0x0 PUSH1 0x20 DUP3 ADD SWAP1 POP SWAP2 SWAP1 POP JUMP JUMPDEST PUSH1 0x0 PUSH2 0xCD6 DUP3 PUSH2 0xC6B JUMP JUMPDEST PUSH2 0xCE0 DUP2 DUP6 PUSH2 0xC76 JUMP JUMPDEST SWAP4 POP PUSH2 0xCEB DUP4 PUSH2 0xC87 JUMP JUMPDEST DUP1 PUSH1 0x0 JUMPDEST DUP4 DUP2 LT ISZERO PUSH2 0xD1C JUMPI DUP2 MLOAD PUSH2 0xD03 DUP9 DUP3 PUSH2 0xCA6 JUMP JUMPDEST SWAP8 POP PUSH2 0xD0E DUP4 PUSH2 0xCBE JUMP JUMPDEST SWAP3 POP POP PUSH1 0x1 DUP2 ADD SWAP1 POP PUSH2 0xCEF JUMP JUMPDEST POP DUP6 SWAP4 POP POP POP POP SWAP3 SWAP2 POP POP JUMP JUMPDEST PUSH1 0x0 DUP2 MLOAD SWAP1 POP SWAP2 SWAP1 POP JUMP JUMPDEST PUSH1 0x0 DUP3 DUP3 MSTORE PUSH1 0x20 DUP3 ADD SWAP1 POP SWAP3 SWAP2 POP POP JUMP JUMPDEST PUSH1 0x0 DUP2 SWAP1 POP PUSH1 0x20 DUP3 ADD SWAP1 POP SWAP2 SWAP1 POP JUMP JUMPDEST PUSH2 0xD5E DUP2 PUSH2 0xAFB JUMP JUMPDEST DUP3 MSTORE POP POP JUMP JUMPDEST PUSH1 0x0 PUSH2 0xD70 DUP4 DUP4 PUSH2 0xD55 JUMP JUMPDEST PUSH1 0x20 DUP4 ADD SWAP1 POP SWAP3 SWAP2 POP POP JUMP JUMPDEST PUSH1 0x0 PUSH1 0x20 DUP3 ADD SWAP1 POP SWAP2 SWAP1 POP JUMP JUMPDEST PUSH1 0x0 PUSH2 0xD94 DUP3 PUSH2 0xD29 JUMP JUMPDEST PUSH2 0xD9E DUP2 DUP6 PUSH2 0xD34 JUMP JUMPDEST SWAP4 POP PUSH2 0xDA9 DUP4 PUSH2 0xD45 JUMP JUMPDEST DUP1 PUSH1 0x0 JUMPDEST DUP4 DUP2 LT ISZERO PUSH2 0xDDA JUMPI DUP2 MLOAD PUSH2 0xDC1 DUP9 DUP3 PUSH2 0xD64 JUMP JUMPDEST SWAP8 POP PUSH2 0xDCC DUP4 PUSH2 0xD7C JUMP JUMPDEST SWAP3 POP POP PUSH1 0x1 DUP2 ADD SWAP1 POP PUSH2 0xDAD JUMP JUMPDEST POP DUP6 SWAP4 POP POP POP POP SWAP3 SWAP2 POP POP JUMP JUMPDEST PUSH1 0x0 PUSH1 0x40 DUP3 ADD SWAP1 POP DUP2 DUP2 SUB PUSH1 0x0 DUP4 ADD MSTORE PUSH2 0xE01 DUP2 DUP6 PUSH2 0xCCB JUMP JUMPDEST SWAP1 POP DUP2 DUP2 SUB PUSH1 0x20 DUP4 ADD MSTORE PUSH2 0xE15 DUP2 DUP5 PUSH2 0xD89 JUMP JUMPDEST SWAP1 POP SWAP4 SWAP3 POP POP POP JUMP JUMPDEST PUSH1 0x0 DUP1 PUSH1 0x40 DUP4 DUP6 SUB SLT ISZERO PUSH2 0xE35 JUMPI PUSH2 0xE34 PUSH2 0xB2F JUMP JUMPDEST JUMPDEST PUSH1 0x0 PUSH2 0xE43 DUP6 DUP3 DUP7 ADD PUSH2 0xB7D JUMP JUMPDEST SWAP3 POP POP PUSH1 0x20 PUSH2 0xE54 DUP6 DUP3 DUP7 ADD PUSH2 0xC00 JUMP JUMPDEST SWAP2 POP POP SWAP3 POP SWAP3 SWAP1 POP JUMP JUMPDEST PUSH1 0x0 DUP3 DUP3 MSTORE PUSH1 0x20 DUP3 ADD SWAP1 POP SWAP3 SWAP2 POP POP JUMP JUMPDEST PUSH32 0x4D696E696D756D206465706F73697420616D6F756E7420697320312045746865 PUSH1 0x0 DUP3 ADD MSTORE PUSH32 0x7200000000000000000000000000000000000000000000000000000000000000 PUSH1 0x20 DUP3 ADD MSTORE POP JUMP JUMPDEST PUSH1 0x0 PUSH2 0xECB PUSH1 0x21 DUP4 PUSH2 0xE5E JUMP JUMPDEST SWAP2 POP PUSH2 0xED6 DUP3 PUSH2 0xE6F JUMP JUMPDEST PUSH1 0x40 DUP3 ADD SWAP1 POP SWAP2 SWAP1 POP JUMP JUMPDEST PUSH1 0x0 PUSH1 0x20 DUP3 ADD SWAP1 POP DUP2 DUP2 SUB PUSH1 0x0 DUP4 ADD MSTORE PUSH2 0xEFA DUP2 PUSH2 0xEBE JUMP JUMPDEST SWAP1 POP SWAP2 SWAP1 POP JUMP JUMPDEST PUSH32 0x4E487B7100000000000000000000000000000000000000000000000000000000 PUSH1 0x0 MSTORE PUSH1 0x11 PUSH1 0x4 MSTORE PUSH1 0x24 PUSH1 0x0 REVERT JUMPDEST PUSH1 0x0 PUSH2 0xF3B DUP3 PUSH2 0xAFB JUMP JUMPDEST SWAP2 POP PUSH2 0xF46 DUP4 PUSH2 0xAFB JUMP JUMPDEST SWAP3 POP DUP3 DUP3 ADD SWAP1 POP DUP1 DUP3 GT ISZERO PUSH2 0xF5E JUMPI PUSH2 0xF5D PUSH2 0xF01 JUMP JUMPDEST JUMPDEST SWAP3 SWAP2 POP POP JUMP JUMPDEST PUSH32 0x4D6178696D756D20636F6E74726163742062616C616E63652072656163686564 PUSH1 0x0 DUP3 ADD MSTORE POP JUMP JUMPDEST PUSH1 0x0 PUSH2 0xF9A PUSH1 0x20 DUP4 PUSH2 0xE5E JUMP JUMPDEST SWAP2 POP PUSH2 0xFA5 DUP3 PUSH2 0xF64 JUMP JUMPDEST PUSH1 0x20 DUP3 ADD SWAP1 POP SWAP2 SWAP1 POP JUMP JUMPDEST PUSH1 0x0 PUSH1 0x20 DUP3 ADD SWAP1 POP DUP2 DUP2 SUB PUSH1 0x0 DUP4 ADD MSTORE PUSH2 0xFC9 DUP2 PUSH2 0xF8D JUMP JUMPDEST SWAP1 POP SWAP2 SWAP1 POP JUMP JUMPDEST PUSH32 0x4E487B7100000000000000000000000000000000000000000000000000000000 PUSH1 0x0 MSTORE PUSH1 0x41 PUSH1 0x4 MSTORE PUSH1 0x24 PUSH1 0x0 REVERT JUMPDEST PUSH32 0x4E487B7100000000000000000000000000000000000000000000000000000000 PUSH1 0x0 MSTORE PUSH1 0x32 PUSH1 0x4 MSTORE PUSH1 0x24 PUSH1 0x0 REVERT JUMPDEST PUSH1 0x0 PUSH2 0x1039 DUP3 PUSH2 0xAFB JUMP JUMPDEST SWAP2 POP PUSH32 0xFFFFFFFFFFFFFFFFFFFFFFFFFFFFFFFFFFFFFFFFFFFFFFFFFFFFFFFFFFFFFFFF DUP3 SUB PUSH2 0x106B JUMPI PUSH2 0x106A PUSH2 0xF01 JUMP JUMPDEST JUMPDEST PUSH1 0x1 DUP3 ADD SWAP1 POP SWAP2 SWAP1 POP JUMP JUMPDEST PUSH32 0x4F6E6C792074686520636F6E7472616374206F776E65722063616E2070657266 PUSH1 0x0 DUP3 ADD MSTORE PUSH32 0x6F726D207468697320616374696F6E0000000000000000000000000000000000 PUSH1 0x20 DUP3 ADD MSTORE POP JUMP JUMPDEST PUSH1 0x0 PUSH2 0x10D2 PUSH1 0x2F DUP4 PUSH2 0xE5E JUMP JUMPDEST SWAP2 POP PUSH2 0x10DD DUP3 PUSH2 0x1076 JUMP JUMPDEST PUSH1 0x40 DUP3 ADD SWAP1 POP SWAP2 SWAP1 POP JUMP JUMPDEST PUSH1 0x0 PUSH1 0x20 DUP3 ADD SWAP1 POP DUP2 DUP2 SUB PUSH1 0x0 DUP4 ADD MSTORE PUSH2 0x1101 DUP2 PUSH2 0x10C5 JUMP JUMPDEST SWAP1 POP SWAP2 SWAP1 POP JUMP JUMPDEST PUSH32 0x546F74616C2070726F706F7274696F6E206D7573742062652031303000000000 PUSH1 0x0 DUP3 ADD MSTORE POP JUMP JUMPDEST PUSH1 0x0 PUSH2 0x113E PUSH1 0x1C DUP4 PUSH2 0xE5E JUMP JUMPDEST SWAP2 POP PUSH2 0x1149 DUP3 PUSH2 0x1108 JUMP JUMPDEST PUSH1 0x20 DUP3 ADD SWAP1 POP SWAP2 SWAP1 POP JUMP JUMPDEST PUSH1 0x0 PUSH1 0x20 DUP3 ADD SWAP1 POP DUP2 DUP2 SUB PUSH1 0x0 DUP4 ADD MSTORE PUSH2 0x116D DUP2 PUSH2 0x1131 JUMP JUMPDEST SWAP1 POP SWAP2 SWAP1 POP JUMP JUMPDEST PUSH32 0x4E6F2065746865727320617661696C61626C6520666F72206469737472696275 PUSH1 0x0 DUP3 ADD MSTORE PUSH32 0x74696F6E00000000000000000000000000000000000000000000000000000000 PUSH1 0x20 DUP3 ADD MSTORE POP JUMP JUMPDEST PUSH1 0x0 PUSH2 0x11D0 PUSH1 0x24 DUP4 PUSH2 0xE5E JUMP JUMPDEST SWAP2 POP PUSH2 0x11DB DUP3 PUSH2 0x1174 JUMP JUMPDEST PUSH1 0x40 DUP3 ADD SWAP1 POP SWAP2 SWAP1 POP JUMP JUMPDEST PUSH1 0x0 PUSH1 0x20 DUP3 ADD SWAP1 POP DUP2 DUP2 SUB PUSH1 0x0 DUP4 ADD MSTORE PUSH2 0x11FF DUP2 PUSH2 0x11C3 JUMP JUMPDEST SWAP1 POP SWAP2 SWAP1 POP JUMP JUMPDEST PUSH32 0x496E73756666696369656E7420636F6E74726163742062616C616E6365000000 PUSH1 0x0 DUP3 ADD MSTORE POP JUMP JUMPDEST PUSH1 0x0 PUSH2 0x123C PUSH1 0x1D DUP4 PUSH2 0xE5E JUMP JUMPDEST SWAP2 POP PUSH2 0x1247 DUP3 PUSH2 0x1206 JUMP JUMPDEST PUSH1 0x20 DUP3 ADD SWAP1 POP SWAP2 SWAP1 POP JUMP JUMPDEST PUSH1 0x0 PUSH1 0x20 DUP3 ADD SWAP1 POP DUP2 DUP2 SUB PUSH1 0x0 DUP4 ADD MSTORE PUSH2 0x126B DUP2 PUSH2 0x122F JUMP JUMPDEST SWAP1 POP SWAP2 SWAP1 POP JUMP JUMPDEST PUSH32 0x4E6F20726563697069656E747320617661696C61626C6520666F722064697374 PUSH1 0x0 DUP3 ADD MSTORE PUSH32 0x7269627574696F6E000000000000000000000000000000000000000000000000 PUSH1 0x20 DUP3 ADD MSTORE POP JUMP JUMPDEST PUSH1 0x0 PUSH2 0x12CE PUSH1 0x28 DUP4 PUSH2 0xE5E JUMP JUMPDEST SWAP2 POP PUSH2 0x12D9 DUP3 PUSH2 0x1272 JUMP JUMPDEST PUSH1 0x40 DUP3 ADD SWAP1 POP SWAP2 SWAP1 POP JUMP JUMPDEST PUSH1 0x0 PUSH1 0x20 DUP3 ADD SWAP1 POP DUP2 DUP2 SUB PUSH1 0x0 DUP4 ADD MSTORE PUSH2 0x12FD DUP2 PUSH2 0x12C1 JUMP JUMPDEST SWAP1 POP SWAP2 SWAP1 POP JUMP JUMPDEST PUSH1 0x0 PUSH2 0x130F DUP3 PUSH2 0xAFB JUMP JUMPDEST SWAP2 POP PUSH2 0x131A DUP4 PUSH2 0xAFB JUMP JUMPDEST SWAP3 POP DUP3 DUP3 MUL PUSH2 0x1328 DUP2 PUSH2 0xAFB JUMP JUMPDEST SWAP2 POP DUP3 DUP3 DIV DUP5 EQ DUP4 ISZERO OR PUSH2 0x133F JUMPI PUSH2 0x133E PUSH2 0xF01 JUMP JUMPDEST JUMPDEST POP SWAP3 SWAP2 POP POP JUMP JUMPDEST PUSH32 0x4E487B7100000000000000000000000000000000000000000000000000000000 PUSH1 0x0 MSTORE PUSH1 0x12 PUSH1 0x4 MSTORE PUSH1 0x24 PUSH1 0x0 REVERT JUMPDEST PUSH1 0x0 PUSH2 0x1380 DUP3 PUSH2 0xAFB JUMP JUMPDEST SWAP2 POP PUSH2 0x138B DUP4 PUSH2 0xAFB JUMP JUMPDEST SWAP3 POP DUP3 PUSH2 0x139B JUMPI PUSH2 0x139A PUSH2 0x1346 JUMP JUMPDEST JUMPDEST DUP3 DUP3 DIV SWAP1 POP SWAP3 SWAP2 POP POP JUMP JUMPDEST PUSH1 0x0 DUP2 SWAP1 POP SWAP3 SWAP2 POP POP JUMP JUMPDEST POP JUMP JUMPDEST PUSH1 0x0 PUSH2 0x13C1 PUSH1 0x0 DUP4 PUSH2 0x13A6 JUMP JUMPDEST SWAP2 POP PUSH2 0x13CC DUP3 PUSH2 0x13B1 JUMP JUMPDEST PUSH1 0x0 DUP3 ADD SWAP1 POP SWAP2 SWAP1 POP JUMP JUMPDEST PUSH1 0x0 PUSH2 0x13E2 DUP3 PUSH2 0x13B4 JUMP JUMPDEST SWAP2 POP DUP2 SWAP1 POP SWAP2 SWAP1 POP JUMP JUMPDEST PUSH32 0x4661696C656420746F2073656E64204574686572000000000000000000000000 PUSH1 0x0 DUP3 ADD MSTORE POP JUMP JUMPDEST PUSH1 0x0 PUSH2 0x1422 PUSH1 0x14 DUP4 PUSH2 0xE5E JUMP JUMPDEST SWAP2 POP PUSH2 0x142D DUP3 PUSH2 0x13EC JUMP JUMPDEST PUSH1 0x20 DUP3 ADD SWAP1 POP SWAP2 SWAP1 POP JUMP JUMPDEST PUSH1 0x0 PUSH1 0x20 DUP3 ADD SWAP1 POP DUP2 DUP2 SUB PUSH1 0x0 DUP4 ADD MSTORE PUSH2 0x1451 DUP2 PUSH2 0x1415 JUMP JUMPDEST SWAP1 POP SWAP2 SWAP1 POP JUMP JUMPDEST PUSH32 0x50726F706F7274696F6E206D7573742062652067726561746572207468616E20 PUSH1 0x0 DUP3 ADD MSTORE PUSH32 0x7A65726F00000000000000000000000000000000000000000000000000000000 PUSH1 0x20 DUP3 ADD MSTORE POP JUMP JUMPDEST PUSH1 0x0 PUSH2 0x14B4 PUSH1 0x24 DUP4 PUSH2 0xE5E JUMP JUMPDEST SWAP2 POP PUSH2 0x14BF DUP3 PUSH2 0x1458 JUMP JUMPDEST PUSH1 0x40 DUP3 ADD SWAP1 POP SWAP2 SWAP1 POP JUMP JUMPDEST PUSH1 0x0 PUSH1 0x20 DUP3 ADD SWAP1 POP DUP2 DUP2 SUB PUSH1 0x0 DUP4 ADD MSTORE PUSH2 0x14E3 DUP2 PUSH2 0x14A7 JUMP JUMPDEST SWAP1 POP SWAP2 SWAP1 POP JUMP JUMPDEST PUSH32 0x4D6178696D756D206E756D626572206F6620726563697069656E747320726561 PUSH1 0x0 DUP3 ADD MSTORE PUSH32 0x6368656400000000000000000000000000000000000000000000000000000000 PUSH1 0x20 DUP3 ADD MSTORE POP JUMP JUMPDEST PUSH1 0x0 PUSH2 0x1546 PUSH1 0x24 DUP4 PUSH2 0xE5E JUMP JUMPDEST SWAP2 POP PUSH2 0x1551 DUP3 PUSH2 0x14EA JUMP JUMPDEST PUSH1 0x40 DUP3 ADD SWAP1 POP SWAP2 SWAP1 POP JUMP JUMPDEST PUSH1 0x0 PUSH1 0x20 DUP3 ADD SWAP1 POP DUP2 DUP2 SUB PUSH1 0x0 DUP4 ADD MSTORE PUSH2 0x1575 DUP2 PUSH2 0x1539 JUMP JUMPDEST SWAP1 POP SWAP2 SWAP1 POP JUMP JUMPDEST PUSH32 0x496E76616C696420726563697069656E74206164647265737300000000000000 PUSH1 0x0 DUP3 ADD MSTORE POP JUMP JUMPDEST PUSH1 0x0 PUSH2 0x15B2 PUSH1 0x19 DUP4 PUSH2 0xE5E JUMP JUMPDEST SWAP2 POP PUSH2 0x15BD DUP3 PUSH2 0x157C JUMP JUMPDEST PUSH1 0x20 DUP3 ADD SWAP1 POP SWAP2 SWAP1 POP JUMP JUMPDEST PUSH1 0x0 PUSH1 0x20 DUP3 ADD SWAP1 POP DUP2 DUP2 SUB PUSH1 0x0 DUP4 ADD MSTORE PUSH2 0x15E1 DUP2 PUSH2 0x15A5 JUMP JUMPDEST SWAP1 POP SWAP2 SWAP1 POP JUMP JUMPDEST PUSH1 0x0 PUSH2 0x15F3 DUP3 PUSH2 0xAFB JUMP JUMPDEST SWAP2 POP PUSH2 0x15FE DUP4 PUSH2 0xAFB JUMP JUMPDEST SWAP3 POP DUP3 DUP3 SUB SWAP1 POP DUP2 DUP2 GT ISZERO PUSH2 0x1616 JUMPI PUSH2 0x1615 PUSH2 0xF01 JUMP JUMPDEST JUMPDEST SWAP3 SWAP2 POP POP JUMP INVALID LOG2 PUSH5 0x6970667358 0x22 SLT KECCAK256 0xC DUP4 SLOAD OR SHL 0xAA SWAP7 RETURNDATACOPY BLOCKHASH GASLIMIT 0x4B 0xA6 0x2D 0xC6 0xBA PUSH32 0x633CA54678B0634DCE10FF5DCB4FE69B64736F6C634300081200330000000000 "
				},
				"gasEstimates": {
					"creation": {
						"codeDepositCost": "1142800",
						"executionCost": "47559",
						"totalCost": "1190359"
					},
					"external": {
						"addRecipient(address,uint256)": "infinite",
						"balances(address)": "2837",
						"deposit()": "infinite",
						"distribute()": "infinite",
						"getRecipients()": "infinite",
						"owner()": "2556",
						"recipients(uint256)": "infinite",
						"totalDeposited()": "2517",
						"totalProportion()": "2430"
					}
				},
				"methodIdentifiers": {
					"addRecipient(address,uint256)": "f7982243",
					"balances(address)": "27e235e3",
					"deposit()": "d0e30db0",
					"distribute()": "e4fc6b6d",
					"getRecipients()": "d78d610b",
					"owner()": "8da5cb5b",
					"recipients(uint256)": "d1bc76a1",
					"totalDeposited()": "ff50abdc",
					"totalProportion()": "22e5aa3a"
				}
			},
			"storageLayout": {
				"storage": [
					{
						"astId": 3,
						"contract": "contract.sol:Test",
						"label": "owner",
						"offset": 0,
						"slot": "0",
						"type": "t_address"
					},
					{
						"astId": 7,
						"contract": "contract.sol:Test",
						"label": "balances",
						"offset": 0,
						"slot": "1",
						"type": "t_mapping(t_address,t_uint256)"
					},
					{
						"astId": 9,
						"contract": "contract.sol:Test",
						"label": "totalDeposited",
						"offset": 0,
						"slot": "2",
						"type": "t_uint256"
					},
					{
						"astId": 12,
						"contract": "contract.sol:Test",
						"label": "totalProportion",
						"offset": 0,
						"slot": "3",
						"type": "t_uint256"
					},
					{
						"astId": 21,
						"contract": "contract.sol:Test",
						"label": "recipients",
						"offset": 0,
						"slot": "4",
						"type": "t_array(t_struct(Recipient)17_storage)dyn_storage"
					}
				],
				"types": {
					"t_address": {
						"encoding": "inplace",
						"label": "address",
						"numberOfBytes": "20"
					},
					"t_array(t_struct(Recipient)17_storage)dyn_storage": {
						"base": "t_struct(Recipient)17_storage",
						"encoding": "dynamic_array",
						"label": "struct Test.Recipient[]",
						"numberOfBytes": "32"
					},
					"t_mapping(t_address,t_uint256)": {
						"encoding": "mapping",
						"key": "t_address",
						"label": "mapping(address => uint256)",
						"numberOfBytes": "32",
						"value": "t_uint256"
					},
					"t_struct(Recipient)17_storage": {
						"encoding": "inplace",
						"label": "struct Test.Recipient",
						"members": [
							{
								"astId": 14,
								"contract": "contract.sol:Test",
								"label": "recipient",
								"offset": 0,
								"slot": "0",
								"type": "t_address"
							},
							{
								"astId": 16,
								"contract": "contract.sol:Test",
								"label": "proportion",
								"offset": 0,
								"slot": "1",
								"type": "t_uint256"
							}
						],
						"numberOfBytes": "64"
					},
					"t_uint256": {
						"encoding": "inplace",
						"label": "uint256",
						"numberOfBytes": "32"
					}
				}
			},
			"userdoc": {
				"kind": "user",
				"methods": {},
				"version": 1
			}
		}
	}
}